:100000000C942A000C9447000C9447000C94470071
:100010000C9447000C9447000C9447000C94470044
:100020000C9447000C9447000C9447000C94470034
:100030000C9447000C9447000C9447000C94470024
:100040000C9447000C9447000C9447000C94470014
:100050000C94470011241FBECFE5D4E0DEBFCDBF16
:1000600011E0A0E6B0E0E6ECFEE002C005900D92E3
:10007000AA3BB107D9F711E0AAEBB1E001C01D928C
:10008000AE3CB107E1F70E9444010C9461070C9467
:1000900000008FEF84BB81BB1ABA089520E030E0E6
:1000A00040E120C0E091C401F091C501E20FF31FCF
:1000B0008081803209F41082E091C401F091C50181
:1000C000E20FF31F80818C3209F44083E091C40178
:1000D000F091C501E20FF31F80818A330CF010828A
:1000E0002F5F3F4F8091C0019091C10128173907C0
:1000F000CCF208958C3219F4E0E1F0E01BC08034BA
:100100004CF4E82FFF27E7FDF095EE0FFF1FED5FA2
:10011000FF4F0DC0803419F4E0E4F0E00BC0E82F8D
:10012000FF27E7FDF095EE0FFF1FE550F04001902F
:10013000F081E02DCF010895AF92BF92CF92DF9270
:10014000EF92FF920F931F93CF93DF936C01A090D8
:10015000C401B090C5017501E80EF91E06EC11E06E
:10016000C0E0D0E0F70140818091C0019091C101D1
:100170009E012C0D3D1D0396821793078CF48091F0
:10018000C0019091C1019601281B390BF501EC0FBC
:10019000FD1FE20FF31F349780810E947A000BC08D
:1001A000842F8C52883320F0F8011182108206C00F
:1001B000842F0E947A00F80191838083219608940D
:1001C000E11CF11C0E5F1F4FC430D10559F6DF91C1
:1001D000CF911F910F91FF90EF90DF90CF90BF9044
:1001E000AF9008950F931F938C010E944E0085B32A
:1001F0008F6785BB82B3877882BB92B3000F111FD4
:10020000F801EF54FF4F8081982B92BB95B30A53AE
:100210001E4FF801808180958068892385BB80917D
:10022000BA019091BB0101969093BB018093BA01F2
:100230001F910F910895089560E070E041E050E053
:1002400020E030E089B390E084239523680F791F84
:10025000440F551F2F5F3F4F2830310599F7CB01D1
:100260000895AC0120E030E0FA01E20FF31F808135
:10027000181644F42336310519F02F5F3F4FF4CFA1
:1002800020E030E0C9010895CF92DF92EF92FF9213
:100290000F931F93DF93CF9300D000D00F92CDB771
:1002A000DEB78FEF84BB81BB1ABAAFE0CA2EA7E2DC
:1002B000DA2E8E010F5F1F4FF0E6EF2EF0E0FF2EDB
:1002C000C89B06C08091C2019091C301019605C0F0
:1002D0008091C2019091C30101979093C3018093D3
:1002E000C2010E941C019C018091C2019091C30136
:1002F0008051974224F01092C3011092C201809164
:10030000C2019091C30197FF04C0D092C301C09273
:10031000C20100D000D000D0EDB7FEB73196ADB726
:10032000BEB712961C930E931197F382E282358327
:1003300024830E94C0041093C5010093C4018DB7AB
:100340009EB706960FB6F8949EBF0FBE8DBFC8012C
:100350000E9431019093C1018093C0010E944E0020
:100360008091BC019091BD010E949C008091BE01D2
:100370009091BF010E94F2006091BA017091BB019F
:10038000882777FD8095982F0E94360220E030E87C
:100390004BEB54E40E94060218169CF48091C001B5
:1003A0009091C10105974CF08091BC019091BD01E5
:1003B00001969093BD018093BC011092BB011092F5
:1003C000BA012091BC013091BD018091C001909192
:1003D000C10103968217930724F41092BD01109275
:1003E000BC018091BE019091BF0101969093BF0125
:1003F0008093BE018091BE019091BF0104970CF4DF
:100400005FCF1092BF011092BE015ACFA8E1B0E0B9
:10041000ECE0F2E00C94950469837A838B839C83EF
:100420002D833E834F83588789E0E82EF12CEC0E14
:10043000FD1ECE010196B7010E94B8038E010F5E2A
:100440001F4FCE010596B8010E94B80389858230FE
:1004500040F08989823028F0C701B8010E94300439
:1004600001C08FEF6896E6E00C94B104A8E0B0E01C
:10047000ECE3F2E00C9492049B01AC0183E08983ED
:10048000DA01C9018827B7FD83959927AA27BB27D9
:10049000B82E211531054105510519F482E08983F3
:1004A0003AC08823A9F0203080E0380780E0480770
:1004B00080E8580729F460E070E080E09FEC30C0ED
:1004C000EE24FF248701E21AF30A040B150B02C085
:1004D00079018A018EE1C82ED12CDC82CB82ED829B
:1004E000FE820F831887C801B7010E94940201970A
:1004F0001816190684F4082E04C0EE0CFF1C001F09
:10050000111F0A94D2F7ED82FE820F831887C81A52
:10051000D90ADC82CB82BA82CE0101960E94E30224
:100520002896E9E00C94AE04EF92FF920F931F938C
:100530007B018C0180E0E81680E0F80681E0080786
:1005400080E0180788F48FEFE816F1040105110523
:1005500031F028F088E090E0A0E0B0E017C080E043
:1005600090E0A0E0B0E012C080E0E81680E0F8067D
:1005700080E0080781E0180728F088E190E0A0E01B
:10058000B0E004C080E190E0A0E0B0E020E230E024
:1005900040E050E0281B390B4A0B5B0B04C016955A
:1005A0000795F794E7948A95D2F7F701E754FF4F40
:1005B0008081281B310941095109C9011F910F91FF
:1005C000FF90EF900895DF92EF92FF920F931F93A9
:1005D000FC01E480F58006811781D1808081823022
:1005E00048F480E090E0A0E1B0E0E82AF92A0A2B84
:1005F0001B2BA5C0843009F49FC0823021F4EE2467
:10060000FF24870105C0E114F1040105110519F467
:10061000E0E0F0E096C0628173819FEF6238790775
:100620000CF05BC022E83FEF261B370B2A31310567
:100630002CF020E030E040E050E02AC0B801A701F3
:10064000022E04C076956795579547950A94D2F780
:1006500081E090E0A0E0B0E004C0880F991FAA1FDD
:10066000BB1F2A95D2F70197A109B1098E219F21BD
:10067000A023B1230097A105B10521F081E090E00E
:10068000A0E0B0E09A01AB01282B392B4A2B5B2B61
:10069000DA01C9018F779070A070B0708034910535
:1006A000A105B10539F427FF09C0205C3F4F4F4F2A
:1006B0005F4F04C0215C3F4F4F4F5F4FE0E0F0E0E1
:1006C0002030A0E03A07A0E04A07A0E45A0710F063
:1006D000E1E0F0E079018A0127C06038710564F536
:1006E000FB01E158FF4FD801C7018F779070A070D0
:1006F000B07080349105A105B10539F4E7FE0DC055
:1007000080E490E0A0E0B0E004C08FE390E0A0E0DF
:10071000B0E0E80EF91E0A1F1B1F17FF05C0169553
:100720000795F794E794319687E016950795F79427
:10073000E7948A95D1F705C0EE24FF248701EFEFF7
:10074000F0E06E2F679566276795902F9F77D79477
:10075000DD24D7948E2F8695492F462B582F5D295F
:10076000B701CA011F910F91FF90EF90DF9008959C
:10077000FC01DB01408151812281622F6F7770E0A3
:10078000221F2227221F9381892F880F822B282F37
:1007900030E0991F9927991F11969C931197211565
:1007A0003105A9F5411551056105710511F482E086
:1007B00037C082E89FEF13969C938E9312979A010D
:1007C000AB0167E0220F331F441F551F6A95D1F715
:1007D00083E08C930DC0220F331F441F551F1296C8
:1007E0008D919C911397019713969C938E931297DA
:1007F000203080E0380780E0480780E4580758F34D
:1008000014962D933D934D935C93179708952F3F26
:10081000310579F4411551056105710519F484E03C
:100820008C93089564FF03C081E08C9312C01C92E6
:1008300010C02F57304013963C932E93129783E0AD
:100840008C9387E0440F551F661F771F8A95D1F759
:10085000706414964D935D936D937C9317970895F0
:100860001F93DC01FB019C91923008F447C080810A
:10087000823008F443C0943051F411961C918430B6
:1008800099F58181682F70E0611B71093FC0843048
:1008900021F0923031F48230B9F18181882389F1DD
:1008A0002DC011961C9111978230F1F0818118179B
:1008B000D9F412962D913C911397828193818217DE
:1008C000930794F028173907BCF014968D919D91E9
:1008D0000D90BC91A02D2481358146815781281728
:1008E00039074A075B0718F4112341F00AC0821741
:1008F0009307A407B50740F4112319F061E070E0F5
:1009000005C06FEF7FEF02C060E070E0CB011F9188
:1009100008952F923F924F925F926F927F928F92A3
:100920009F92AF92BF92CF92DF92EF92FF920F937E
:100930001F93CF93DF93CDB7DEB7CA1BDB0B0FB688
:10094000F894DEBF0FBECDBF09942A883988488845
:100950005F846E847D848C849B84AA84B984C884DB
:10096000DF80EE80FD800C811B81AA81B981CE0FD2
:10097000D11D0FB6F894DEBF0FBECDBFED010895B7
:10098000AEE0B0E0E6ECF4E00C9497040D891E892B
:1009900086E08C831A8309838FEF9FE79E838D8384
:1009A0009E01275E3F4FCE0101966F89788DA90188
:1009B0000E94E4042F813885020F131FF801108272
:1009C0002E96E4E00C94B304ABE0B0E0EAEEF4E081
:1009D0000C9489043C012B015A01FC0117821682F8
:1009E000838181FD03C06FEF7FEFC6C19AE0892E3E
:1009F0001E010894211C311CF3012381F20123FD07
:100A0000859123FF81912F01882309F4B2C185329A
:100A100039F423FD859123FF81912F01853229F43B
:100A200090E0B3010E94D706E7CF982FFF24EE2471
:100A30009924FFE1FF15D0F09B3269F09C3228F435
:100A4000903259F0933291F40EC09D3249F09033B8
:100A500069F441E024C052E0F52A84E0F82A28C075
:100A600098E0F92A25C0E0E1FE2A22C0F7FC29C05F
:100A7000892F80538A3070F4F6FE05C0989C902C24
:100A80001124980E15C0E89CE02C1124E80EF0E229
:100A9000FF2A0EC09E3229F4F6FC6BC140E4F42A12
:100AA00007C09C3619F450E8F52A02C0983649F47C
:100AB000F20123FD959123FF91912F01992309F0D4
:100AC000B8CF892F8554833018F08052833038F4A2
:100AD00044E050E0A40EB51E5FE359830FC0933687
:100AE00031F0933779F0933509F056C020C0F50105
:100AF0008081898342E050E0A40EB51E610101E0CF
:100B000010E012C0F501C080D180F6FC03C06FEF89
:100B10007FEF02C0692D70E042E050E0A40EB51EE8
:100B2000C6010E94CC068C015FE7F52214C0F501D6
:100B3000C080D180F6FC03C06FEF7FEF02C0692D4B
:100B400070E042E050E0A40EB51EC6010E94C1064E
:100B50008C0150E8F52AF3FE07C01AC080E290E04D
:100B6000B3010E94D706EA948E2D90E0081719076A
:100B7000A8F30EC0F601F7FC8591F7FE81916F0195
:100B800090E0B3010E94D706E110EA9401501040B2
:100B90000115110579F7EAC0943611F0993669F517
:100BA000F7FE08C0F501208131814281538184E044
:100BB00090E00AC0F501808191819C01442737FDB6
:100BC0004095542F82E090E0A80EB91E9FE6F922CE
:100BD00057FF09C050954095309521953F4F4F4F95
:100BE0005F4FE0E8FE2ACA01B901A1012AE030E026
:100BF0000E940307D82ED21840C0953729F41F2D24
:100C00001F7E2AE030E01DC01F2D197F9F3661F046
:100C1000903720F4983509F0ACC00FC0903739F008
:100C2000983709F0A6C004C028E030E00AC010617F
:100C300014FD146020E130E004C014FD166020E1D2
:100C400032E017FF08C0F5016081718182819381D4
:100C500044E050E008C0F50180819181BC0180E052
:100C600090E042E050E0A40EB51EA1010E940307EF
:100C7000D82ED2188FE7F82EF122F6FE0BC05EEFC9
:100C8000F522D91438F4F4FE07C0F2FC05C08FEE4B
:100C9000F82202C01D2D01C0192DF4FE0DC0FE0169
:100CA000ED0DF11D8081803319F499EEF92208C011
:100CB0001F5FF2FE05C003C08F2D867809F01F5F0D
:100CC0000F2DF3FC14C0F0FE0FC01E1510F09D2C6C
:100CD0000BC09D2C9E0C911A1E2D06C080E290E048
:100CE000B3010E94D7061F5F1E15C0F304C01E1576
:100CF00010F4E11A01C0EE2404FF0FC080E390E07D
:100D0000B3010E94D70602FF1DC001FD03C088E7A2
:100D100090E00EC088E590E00BC0802F867891F0BF
:100D200001FF02C08BE201C080E2F7FC8DE290E09F
:100D3000B3010E94D70606C080E390E0B3010E9491
:100D4000D7069A94D914C0F3DA94F101ED0DF11D90
:100D5000808190E0B3010E94D706DD20A9F706C08C
:100D600080E290E0B3010E94D706EA94EE20C1F73A
:100D700043CEF30166817781CB012B96E2E10C949F
:100D8000A504FC010590615070400110D8F78095D2
:100D900090958E0F9F1F0895FC0161507040019047
:100DA0000110D8F7809590958E0F9F1F08950F938F
:100DB0001F93CF93DF938C01EB018B8181FF1BC0CD
:100DC00082FF0DC02E813F818C819D8128173907BC
:100DD00064F4E881F9810193F983E88306C0E8852A
:100DE000F985802F0995892B31F48E819F81019699
:100DF0009F838E8302C00FEF1FEFC801DF91CF9159
:100E00001F910F910895FA01AA27283051F120313E
:100E100081F1E8946F936E7F6E5F7F4F8F4F9F4F8E
:100E2000AF4FB1E03ED0B4E03CD0670F781F891FD0
:100E30009A1FA11D680F791F8A1F911DA11D6A0F9E
:100E4000711D811D911DA11D20D009F468943F9151
:100E50002AE0269F11243019305D3193DEF6CF0150
:100E60000895462F4770405D4193B3E00FD0C9F716
:100E7000F6CF462F4F70405D4A3318F0495D31FD83
:100E80004052419302D0A9F7EACFB4E0A6959795D6
:100E9000879577956795BA95C9F7009761057105AC
:100EA00008959B01AC010A2E0694579547953795F6
:100EB0002795BA95C9F7620F731F841F951FA01D50
:060EC0000895F894FFCF35
:100EC6002564003F0006005B004F0066006D007D54
:100ED6000007007F00670080004000100077007C5C
:100EE6000039005E00790071003D00740030001E7C
:100EF6000075003800150037003F007300670033A7
:100F0600006D0078003E001C002A0076006E005B33
:100F16000008001000200040000001020203030345
:100F26000304040404040404040505050505050575
:100F36000505050505050505050606060606060654
:100F4600060606060606060606060606060606063B
:100F56000606060606060606060707070707070724
:100F6600070707070707070707070707070707070B
:100F760007070707070707070707070707070707FB
:100F860007070707070707070707070707070707EB
:100F960007070707070707070708080808080808D4
:100FA60008080808080808080808080808080808BB
:100FB60008080808080808080808080808080808AB
:100FC600080808080808080808080808080808089B
:100FD600080808080808080808080808080808088B
:100FE600080808080808080808080808080808087B
:100FF600080808080808080808080808080808086B
:10100600080808080808080808080808080808085A
:0A1016000808080808080808080088
:00000001FF
