:1000000010C022C021C020C01FC01EC01DC01CC007
:100010001BC01AC019C018C017C016C015C014C024
:1000200013C011241FBECFE5D2E0DEBFCDBF10E06C
:10003000A0E6B0E0E2E1F8E002C005900D92AE3635
:10004000B107D9F78FD3E3C3DBCFDF93CF930F9201
:10005000CDB7DEB7198203C089818F5F898389811B
:100060008830D0F30F90CF91DF9108958FEF84BB4C
:100070008FE38ABB8BB38F638BBB0895DF93CF93E2
:100080000F92CDB7DEB714BA8BB3897F8BBB1982C1
:1000900003C089818F5F898389818830D0F383B3DE
:1000A0009FEF94BB9BB396609BBB0F90CF91DF916A
:1000B00008951F93DF93CF930F92CDB7DEB7182F1C
:1000C000DDDF90E083709070892BD1F315BB8BB38B
:1000D0008A7F8BBB198203C089818F5F8983898165
:1000E0008830D0F38BB385608BBB0F90CF91DF91BD
:1000F0001F9108951F93DF93CF930F92CDB7DEB773
:10010000182FBCDF90E083709070892BD1F315BB62
:100110008BB3827F8BBB198203C089818F5F8983F8
:1001200089818830D0F38BB38D608BBB0F90CF91DA
:10013000DF911F910895DF93CF930F92CDB7DEB774
:100140009DDF90E083709070892BD1F314BA8BB34C
:10015000817F8BBB198203C089818F5F89838981ED
:100160008830D0F383B39BB39E609BBB9FEF94BB5F
:100170000F90CF91DF9108951F93192FBBDF812F2F
:10018000B9DF84E296DF1F9108959EE1699FB00177
:1001900011249B01280F311DC901EEDF0895AADF4C
:1001A00080EC87DF08950F931F93182F042F8695F7
:1001B0008695869590E080529E4F2EE1629FB00119
:1001C0001124860F971FD8DF85EC73DFB4DF482F2B
:1001D000212F30E0002369F0209530952770307092
:1001E00081E090E002C0880F991F2A95E2F7842BE6
:1001F0000DC0209530952770307081E090E002C0EE
:10020000880F991F2A95E2F780958423C8DF1F91F4
:100210000F910895CF92DF92EF92FF920F931F9369
:10022000CF93DF93C62E182FE82EFF24E40EF11C87
:10023000C62FD0E0C20FD11DDD24D394D01A0BC03D
:10024000812F602F4D2DAFDF0F5F802F90E08C1737
:100250009D07B4F31F5F812F90E08E159F0514F466
:100260000C2DF3CFDF91CF911F910F91FF90EF9065
:10027000DF90CF9008952F923F924F925F926F92AE
:100280007F928F929F92AF92BF92CF92DF92EF9226
:10029000FF920F931F93DF93CF93CDB7DEB72797CE
:1002A0000FB6F894DEBF0FBECDBF5C017F836E83B7
:1002B0005B834A833D832C836A01C81AD90A79017A
:1002C000E61AF70A1601220C331C2701440C551CB0
:1002D000D7FC04C091E0692E712C0BC0D094C1945E
:1002E000D108D394309421943108339466246A94CD
:1002F000762CF7FC04C081E0882E912C0BC0F09482
:10030000E194F108F3945094419451085394882453
:100310008A94982C21E0201B29838A2D6E81422FFC
:1003200042DFC114D10421F4E114F10409F440C006
:10033000CE14DF04FCF083010A0D1B1DEE80FF804C
:10034000AA24BB24A40CB51CCA14DB0424F4E80CB6
:10035000F91CA218B308802F6E2D498124DF060DE9
:10036000171DC80186199709EA81FB818E179F071F
:1003700049F71EC00E811F81080D191D6501AA24B1
:10038000BB24A20CB31CEA14FB0424F4C60CD71C37
:10039000A418B5088C2D602F498105DF080D191DA3
:1003A000C801881999092C813D818217930749F763
:1003B00027960FB6F894DEBF0FBECDBFCF91DF9169
:1003C0001F910F91FF90EF90DF90CF90BF90AF9073
:1003D0009F908F907F906F905F904F903F902F9065
:1003E00008952F923F924F925F926F927F928F92D9
:1003F0009F92AF92BF92CF92DF92EF92FF920F93B4
:100400001F93CF93DF93282E362E842E9924C40178
:10041000880F991FCC27DD27C81BD90B219666248E
:10042000772451E0452E512CAA24BB24CC24C3941C
:10043000C21AD82CD20C062D030D8D2D602F4C2DF9
:10044000B2DE122D1819812F602F4C2DACDE032D3A
:100450000619812F602F4C2DA6DE8D2D602F4C2D7F
:10046000A2DED62CD20C082D030D8D2D602F4C2D25
:100470009ADE122D1619812F602F4C2D94DE032D3C
:100480000819812F602F4C2D8EDE8D2D602F4C2D65
:100490008ADE0894611C711CA40CB51C82E090E0FB
:1004A000480E591EC501880F991F8C0F9D1F1816E5
:1004B000190634F4089481089108AC0EBD1E2296EA
:1004C000861497040CF0B5CFDF91CF911F910F9157
:1004D000FF90EF90DF90CF90BF90AF909F908F9064
:1004E0007F906F905F904F903F902F900895CF92A4
:1004F000DF92EF92FF920F931F93CF93DF93C82E5B
:10050000D62E7901C0E0D0E0042F10E006C08C2D7B
:100510006D2D4C2F970165DF2196C017D107BCF3D5
:10052000DF91CF911F910F91FF90EF90DF90CF90CF
:100530000895BF92CF92DF92EF92FF920F931F9395
:10054000F82E062FB42ED22EEE24FA94CF2CC40E01
:10055000F3940BC01E2D100F8F2D612F41E023DE71
:100560008C2D612F41E01FDEE394ED1498F3EE240F
:100570000150D00E0F5F0BC01E2D1F0D812F602F5D
:1005800041E011DE812F6D2D41E00DDEE394EB148F
:1005900098F31F910F91FF90EF90DF90CF90BF9055
:1005A00008950F931F93CF93DF938B0190E08050BA
:1005B0009E4F73E0880F991F7A95E1F7DDDDC0E06B
:1005C000D0E0F801EC0FFD1F8081E9DD2196C830F5
:1005D000D105B9F7DF91CF911F910F910895805206
:1005E000DEDD0895CF93DF93EC0101C0F8DFFE015B
:1005F000219684918823D1F7DF91CF910895CF93ED
:10060000DF93EC0102C02196EADF88818823D9F7C5
:10061000DF91CF910895CF93DF9380EE91E0ACDD31
:10062000C0E0D0E080E0BBDD21968FE0C030D8078D
:10063000C9F7DF91CF910895CF93DF9380E090E1E8
:100640009BDDC0E0D0E080E0AADD219688E0C030EC
:10065000D807C9F7DF91CF910895CF93DF9380E05A
:1006600090E08ADDC0E0D0E080E099DD219681E075
:10067000C03ED807C9F7DF91CF910895869586953A
:10068000869590E080529E4F2EE1629FB00111242A
:10069000860F971F71DD0895AF92BF92CF92DF92C0
:1006A000EF92FF920F931F93CF93DF93A62EB42E5A
:1006B000D22EC02ED694D694D6947C0100E013C0DE
:1006C000602F6B0D8A2DDADFE70110E005C0FE0117
:1006D000849165DD1F5F21961D15C8F30F5F8EE1C4
:1006E00090E0E80EF91E0C1558F3DF91CF911F91A1
:1006F0000F91FF90EF90DF90CF90BF90AF90089553
:100700008FEF84BB8FE38ABB8BB38F638BBBDC988B
:1007100080ED97E00197F1F7DC9ADD9880EEEADC56
:1007200081E0E8DC82E4C5DC8EE1E4DC80E0E2DC50
:1007300083E4BFDC80E0DEDC80E0DCDC80E4B9DC8C
:100740008EE1D8DC80E0D6DC81E4B3DC82E0D2DC70
:1007500080E0D0DC82E2ADDC8CE9ABDC80E8A9DCB7
:1007600008950895EF92FF920F931F93CF93DF9315
:10077000C7DF73DF61DF4FDF80E060E006DD80E62A
:1007800090E03DDFC9E1D0E0CE0160E070E0AE0175
:1007900020E830E001E010E06EDD7E010894E11C0D
:1007A000F11CC70160E070E0A70120E830E000E044
:1007B00010E061DDC70160EF70E002D0EC01E4CF32
:1007C00097FB092E07260AD077FD04D00CD006D05F
:1007D00000201AF4709561957F4F0895F6F7909573
:1007E00081959F4F0895AA1BBB1B51E107C0AA1F0B
:1007F000BB1FA617B70710F0A61BB70B881F991FC2
:100800005A95A9F780959095BC01CD010895F8946B
:02081000FFCF18
:0E08120048656C6C6F20576F726C642100019A
:00000001FF
