:1000000010C02AC029C028C027C026C025C024C0CF
:1000100023C022C021C020C01FC01EC01DC01CC0E4
:100020001BC011241FBECFE5D2E0DEBFCDBF10E064
:10003000A0E6B0E0ECE3F0E102C005900D92A43739
:10004000B107D9F710E0A4E7B0E001C01D92A238D3
:10005000B107E1F7A8D7F0C7D3CFDF93CF930F92C3
:10006000CDB7DEB7198203C089818F5F898389810B
:100070008830D0F30F90CF91DF9108958FEF84BB3C
:100080008FE38ABB8BB38F638BBB0895DF93CF93D2
:100090000F92CDB7DEB714BA8BB3897F8BBB1982B1
:1000A00003C089818F5F898389818830D0F383B3CE
:1000B0009FEF94BB9BB396609BBB0F90CF91DF915A
:1000C00008951F93DF93CF930F92CDB7DEB7182F0C
:1000D000DDDF90E083709070892BD1F315BB8BB37B
:1000E0008A7F8BBB198203C089818F5F8983898155
:1000F0008830D0F38BB385608BBB0F90CF91DF91AD
:100100001F9108951F93DF93CF930F92CDB7DEB762
:10011000182FBCDF90E083709070892BD1F315BB52
:100120008BB3827F8BBB198203C089818F5F8983E8
:1001300089818830D0F38BB38D608BBB0F90CF91CA
:10014000DF911F910895DF93CF930F92CDB7DEB764
:100150009DDF90E083709070892BD1F314BA8BB33C
:10016000817F8BBB198203C089818F5F89838981DD
:100170008830D0F383B39BB39E609BBB9FEF94BB4F
:100180000F90CF91DF9108951F93192FBBDF812F1F
:10019000B9DF84E296DF1F9108959EE1699FB00167
:1001A00011249B01280F311DC901EEDF0895AADF3C
:1001B00080EC87DF08950F931F93182F042F8695E7
:1001C0008695869590E080529E4F2EE1629FB00109
:1001D0001124860F971FD8DF85EC73DFB4DF482F1B
:1001E000212F30E0002369F0209530952770307082
:1001F00081E090E002C0880F991F2A95E2F7842BD6
:100200000DC0209530952770307081E090E002C0DD
:10021000880F991F2A95E2F780958423C8DF1F91E4
:100220000F910895CF92DF92EF92FF920F931F9359
:10023000CF93DF93C62E182FE82EFF24E40EF11C77
:10024000C62FD0E0C20FD11DDD24D394D01A0BC02D
:10025000812F602F4D2DAFDF0F5F802F90E08C1727
:100260009D07B4F31F5F812F90E08E159F0514F456
:100270000C2DF3CFDF91CF911F910F91FF90EF9055
:10028000DF90CF9008952F923F924F925F926F929E
:100290007F928F929F92AF92BF92CF92DF92EF9216
:1002A000FF920F931F93DF93CF93CDB7DEB72797BE
:1002B0000FB6F894DEBF0FBECDBF5C017F836E83A7
:1002C0005B834A833D832C836A01C81AD90A79016A
:1002D000E61AF70A1601220C331C2701440C551CA0
:1002E000D7FC04C091E0692E712C0BC0D094C1944E
:1002F000D108D394309421943108339466246A94BD
:10030000762CF7FC04C081E0882E912C0BC0F09471
:10031000E194F108F3945094419451085394882443
:100320008A94982C21E0201B29838A2D6E81422FEC
:1003300042DFC114D10421F4E114F10409F440C0F6
:10034000CE14DF04FCF083010A0D1B1DEE80FF803C
:10035000AA24BB24A40CB51CCA14DB0424F4E80CA6
:10036000F91CA218B308802F6E2D498124DF060DD9
:10037000171DC80186199709EA81FB818E179F070F
:1003800049F71EC00E811F81080D191D6501AA24A1
:10039000BB24A20CB31CEA14FB0424F4C60CD71C27
:1003A000A418B5088C2D602F498105DF080D191D93
:1003B000C801881999092C813D818217930749F753
:1003C00027960FB6F894DEBF0FBECDBFCF91DF9159
:1003D0001F910F91FF90EF90DF90CF90BF90AF9063
:1003E0009F908F907F906F905F904F903F902F9055
:1003F00008952F923F924F925F926F927F928F92C9
:100400009F92AF92BF92CF92DF92EF92FF920F93A3
:100410001F93CF93DF93282E362E842E9924C40168
:10042000880F991FCC27DD27C81BD90B219666247E
:10043000772451E0452E512CAA24BB24CC24C3940C
:10044000C21AD82CD20C062D030D8D2D602F4C2DE9
:10045000B2DE122D1819812F602F4C2DACDE032D2A
:100460000619812F602F4C2DA6DE8D2D602F4C2D6F
:10047000A2DED62CD20C082D030D8D2D602F4C2D15
:100480009ADE122D1619812F602F4C2D94DE032D2C
:100490000819812F602F4C2D8EDE8D2D602F4C2D55
:1004A0008ADE0894611C711CA40CB51C82E090E0EB
:1004B000480E591EC501880F991F8C0F9D1F1816D5
:1004C000190634F4089481089108AC0EBD1E2296DA
:1004D000861497040CF0B5CFDF91CF911F910F9147
:1004E000FF90EF90DF90CF90BF90AF909F908F9054
:1004F0007F906F905F904F903F902F900895CF9294
:10050000DF92EF92FF920F931F93CF93DF93C82E4A
:10051000D62E7901C0E0D0E0042F10E006C08C2D6B
:100520006D2D4C2F970165DF2196C017D107BCF3C5
:10053000DF91CF911F910F91FF90EF90DF90CF90BF
:100540000895BF92CF92DF92EF92FF920F931F9385
:10055000F82E062FB42ED22EEE24FA94CF2CC40EF1
:10056000F3940BC01E2D100F8F2D612F41E023DE61
:100570008C2D612F41E01FDEE394ED1498F3EE24FF
:100580000150D00E0F5F0BC01E2D1F0D812F602F4D
:1005900041E011DE812F6D2D41E00DDEE394EB147F
:1005A00098F31F910F91FF90EF90DF90CF90BF9045
:1005B00008950F931F93CF93DF938B0190E08050AA
:1005C0009E4F73E0880F991F7A95E1F7DDDDC0E05B
:1005D000D0E0F801EC0FFD1F8081E9DD2196C830E5
:1005E000D105B9F7DF91CF911F910F9108958052F6
:1005F000DEDD0895CF93DF93EC0101C0F8DFFE014B
:10060000219684918823D1F7DF91CF910895CF93DC
:10061000DF93EC0102C02196EADF88818823D9F7B5
:10062000DF91CF910895CF93DF9380EE91E0ACDD21
:10063000C0E0D0E080E0BBDD21968FE0C030D8077D
:10064000C9F7DF91CF910895CF93DF9380E090E1D8
:100650009BDDC0E0D0E080E0AADD219688E0C030DC
:10066000D807C9F7DF91CF910895CF93DF9380E04A
:1006700090E08ADDC0E0D0E080E099DD219681E065
:10068000C03ED807C9F7DF91CF910895869586952A
:10069000869590E080529E4F2EE1629FB00111241A
:1006A000860F971F71DD0895AF92BF92CF92DF92B0
:1006B000EF92FF920F931F93CF93DF93A62EB42E4A
:1006C000D22EC02ED694D694D6947C0100E013C0CE
:1006D000602F6B0D8A2DDADFE70110E005C0FE0107
:1006E000849165DD1F5F21961D15C8F30F5F8EE1B4
:1006F00090E0E80EF91E0C1558F3DF91CF911F9191
:100700000F91FF90EF90DF90CF90BF90AF90089542
:100710008FEF84BB8FE38ABB8BB38F638BBBDC987B
:1007200080ED97E00197F1F7DC9ADD9880EEEADC46
:1007300081E0E8DC82E4C5DC8EE1E4DC80E0E2DC40
:1007400083E4BFDC80E0DEDC80E0DCDC80E4B9DC7C
:100750008EE1D8DC80E0D6DC81E4B3DC82E0D2DC60
:1007600080E0D0DC82E2ADDC8CE9ABDC80E8A9DCA7
:10077000089511BACDDF79DF67DF55DF83E090E0C0
:1007800090937B0080937A000895982F843108F429
:1007900065C18C3D08F062C1863709F45FC18F32B4
:1007A00011F08F3B29F46D3518F4613208F056C111
:1007B0009B3111F0933D29F4613518F46D3218F036
:1007C0004DC16C3511F0613229F4892F8F52813976
:1007D00008F044C16B3239F4923708F490C09B376B
:1007E00008F08DC03BC16C3279F4892F8F5683306D
:1007F00008F434C19B3709F431C19C3709F42EC188
:100800009D3709F07CC02AC16D32A9F4892F84512B
:10081000873008F423C19D3609F420C19E3609F4BF
:100820001DC19E3709F41AC19F3709F417C1943DC1
:1008300008F465C013C16E3261F4892F8B56823083
:1008400008F40CC1903809F409C1913809F057C077
:1008500005C16F3239F49A3609F400C1923809F0B3
:100860004EC0FCC0603339F4993609F4F7C09338B0
:1008700009F045C0F3C0613331F4983609F4EEC095
:100880009438E9F5EBC0623331F4973609F4E6C0E9
:100890009538A9F5E3C0633331F4963609F4DEC028
:1008A000963869F5DBC0643311F0653331F4953661
:1008B00009F4D4C0973819F5D1C0663311F0673305
:1008C00031F4943609F4CAC09838C9F4C7C0683303
:1008D00021F0693311F06A3331F4933609F4BEC064
:1008E000993869F4BBC06B3321F06C3311F06D3370
:1008F00031F4923609F4B2C09A3809F4AFC0862FA9
:100900008E538330B8F4892F8552823008F4A6C004
:10091000923609F4A3C0953709F4A0C0973709F4BB
:100920009DC09A3809F49AC0983C09F497C0993C44
:1009300009F494C06F3439F49A3609F48FC09238B0
:1009400009F08EC08BC06E3439F4993609F486C034
:10095000933809F085C082C06D3439F4983609F4B3
:100960007DC0943809F07CC079C06C3439F4973676
:1009700009F474C0953809F073C070C06B3439F451
:10098000963609F46BC0963809F06AC067C06A34BD
:1009900011F0693439F4953609F460C0973809F0DC
:1009A0005FC05CC0683411F0673439F4943609F4E0
:1009B00055C0983809F054C051C0663421F06534F0
:1009C00011F0643439F4933609F448C0993809F0C9
:1009D00047C044C0633411F0623429F49236F1F117
:1009E0009A38F1F53BC0613431F49236B9F180E0C8
:1009F0009A38B9F533C0603581F4892F8451873036
:100A000068F19B3659F19C3649F1903839F19138AB
:100A100029F180E0943D28F121C0613551F4892FFE
:100A20008D568230D8F09E37C9F080E09F37C9F4E8
:100A300015C0623561F4892F8F56833078F09B376B
:100A400069F09C3759F080E09D3759F407C0633551
:100A500039F4923728F080E09B3718F481E008954C
:100A600080E008952F923F924F925F926F927F9213
:100A70008F929F92AF92BF92CF92DF92EF92FF92AE
:100A80000F931F93DF93CF93CDB7DEB72B970FB69E
:100A9000F894DEBF0FBECDBF89836A834B832C835E
:100AA000C0907A00D0907B00C601880F991F222742
:100AB0003327281B390B2F5F3F4F3B872A8766243C
:100AC0007724F1E04F2E512CAA24BB24DCC08824CB
:100AD00099248C189D083A81360D3D839A81961988
:100AE0009E83E981E60DEF83F981F619F8872C8161
:100AF000260D29872C8026183B80360CEB80E618C3
:100B0000F82C0981080D802F6D813FDE882321F4A8
:100B1000802F6D8140E04FDB19811F19812F6D817E
:100B200034DE882321F4812F6D8140E044DB812F66
:100B30006E812BDE882321F4812F6E8140E03BDB28
:100B4000802F6E8122DE882321F4802F6E8140E089
:100B500032DB1A811F0D8F81612F17DE882321F46C
:100B60008F81612F40E027DB8885612F0EDE88238F
:100B700021F48885612F40E01EDB1A811F198885CA
:100B8000612F03DE882321F48885612F40E013DB89
:100B90008F81612FFADD882321F48F81612F40E05E
:100BA0000ADB0B810F0D802F6985EFDD882321F48F
:100BB000802F698541E0FFDA1B811F19812F69852C
:100BC000E4DD882321F4812F698541E0F4DA812F67
:100BD000622DDBDD882321F4812F622D41E0EBDAE9
:100BE000802F622DD2DD882321F4802F622D41E0F9
:100BF000E2DA1C811F0D832D612FC7DD882321F4CC
:100C0000832D612F41E0D7DA8E2D612FBEDD882341
:100C100021F48E2D612F41E0CEDA1C811F198E2D1B
:100C2000612FB3DD882321F48E2D612F41E0C3DADB
:100C3000832D612FAADD882321F4832D612F41E0CC
:100C4000BADA0894811C911CC814D9040CF058CF4E
:100C5000A40CB51CC501880F991FEA85FB858E0F72
:100C60009F1F1816190644F40894C108D108AE0E47
:100C7000BF1E3296FB87EA870894611C711C22E034
:100C800030E0420E531EC614D7040CF020CF2B9632
:100C90000FB6F894DEBF0FBECDBFCF91DF911F918D
:100CA0000F91FF90EF90DF90CF90BF90AF909F900B
:100CB0008F907F906F905F904F903F902F9008950E
:100CC0000F931F9381E160E042E020E800E010E034
:100CD000A9DA82E161E24EE12CE333DC82E16DE2EC
:100CE0004AE024E22EDC85E26EE342E022E09ADA7A
:100CF00081E16FE241E020E201E010E093DA8FE071
:100D00006FE244E020E21DDC85E76EE343E023E090
:100D100000E010E087DA86E76FE344E120E030E0AE
:100D200068DB86E760E041E020E87CDA8CED60E09B
:100D300042E020E877DA8FEB61E24EE12CE301DC60
:100D400083ED6DE24AE024E2FCDB88EC6EE342E0F6
:100D500022E068DA8DED6FE241E020E201E010E090
:100D600061DA8CED6FE244E020E2EBDB1F910F9142
:100D700008950F931F93CF93DF93E0E0F0E020E816
:100D800030E001E010E0C0E0D0E080B390E08223EA
:100D90009323892B11F0E00FF11F2196C830D10564
:100DA00041F0C90162E070E020D19B01000F111FEA
:100DB000ECCFCF01DF91CF911F910F91089596B3A2
:100DC00086B3282F30E02170307091FD08C0232BAE
:100DD00019F023E030E00AC020E030E007C0232B08
:100DE00019F022E030E002C021E030E0C9010895AE
:100DF000CF93DF93BEDFEC01E2DF90937700809327
:100E0000760020917400309175002817390711F58C
:100E1000CF3FD105F9F02115310529F4D0936200B7
:100E2000C093610010C08130910529F4D093640013
:100E3000C09363000FC08230910529F4D0936A00FB
:100E4000C093690007C02330310521F4D0937000AE
:100E5000C0936F009093750080937400DF91CF91E1
:100E600008950F931F9380917E00609180004091C0
:100E7000780020917C00F6DD8091780090917900D7
:100E800080937E0090937F0060917C0090917D0024
:100E9000609380009093810026E930E030937900E0
:100EA0002093780008E710E010937D0000937C0009
:100EB00046E928E7D7DD809178009091790080930A
:100EC0007E0090937F0060917C0090917D00609304
:100ED0008000909381002CE330E0309379002093E0
:100EE00078002EE130E030937D0020937C004CE3CD
:100EF0002EE1B8DD809178009091790080937E009A
:100F000090937F0060917C0090917D0060938000C1
:100F10009093810020E530E03093790020937800B1
:100F200030937D0020937C0040E520E59BDD80919F
:100F300078009091790080937E0090937F0060917B
:100F40007C0090917D0060938000909381001093CD
:100F500079000093780022E330E030937D00209305
:100F60007C0048E722E37EDD809178009091790053
:100F700090937F0080937E0080917C0090917D0013
:100F8000909381008093800088EC90E090937900AA
:100F90008093780084E190E090937D0080937C00C2
:100FA0001F910F910895E5DB8AE090E090937F0018
:100FB00080937E0024E130E0309381002093800014
:100FC00088EC90E0909379008093780030937D00D6
:100FD00020937C0075DE10927F0010927E001092AC
:100FE0008100109280003DDFFECF97FB092E07267F
:100FF0000AD077FD04D00CD006D000201AF47095EA
:1010000061957F4F0895F6F7909581959F4F0895CC
:10101000AA1BBB1B51E107C0AA1FBB1FA617B7071E
:1010200010F0A61BB70B881F991F5A95A9F780953A
:0C1030009095BC01CD010895F894FFCF0D
:10103C00016400640063003C0040000000B4004008
:04104C0000000000A0
:00000001FF
