:1000000010C02AC029C028C027C026C025C024C0CF
:1000100023C022C021C020C01FC01EC01DC01CC0E4
:100020001BC011241FBECFE5D2E0DEBFCDBF10E064
:10003000A0E6B0E0E8E7F7E102C005900D92A63730
:10004000B107D9F710E0A6E7B0E001C01D92A838CB
:10005000B107E1F711D88ECBD3CFDF93CF930F92B7
:10006000CDB7DEB7198203C089818F5F898389810B
:100070008830D0F30F90CF91DF9108958FEF84BB3C
:100080008FE38ABB8BB38F638BBB0895DF93CF93D2
:100090000F92CDB7DEB714BA8BB3897F8BBB1982B1
:1000A00003C089818F5F898389818830D0F383B3CE
:1000B0009FEF94BB9BB396609BBB0F90CF91DF915A
:1000C00008951F93DF93CF930F92CDB7DEB7182F0C
:1000D000DDDF90E083709070892BD1F315BB8BB37B
:1000E0008A7F8BBB198203C089818F5F8983898155
:1000F0008830D0F38BB385608BBB0F90CF91DF91AD
:100100001F9108951F93DF93CF930F92CDB7DEB762
:10011000182FBCDF90E083709070892BD1F315BB52
:100120008BB3827F8BBB198203C089818F5F8983E8
:1001300089818830D0F38BB38D608BBB0F90CF91CA
:10014000DF911F910895DF93CF930F92CDB7DEB764
:100150009DDF90E083709070892BD1F314BA8BB33C
:10016000817F8BBB198203C089818F5F89838981DD
:100170008830D0F383B39BB39E609BBB9FEF94BB4F
:100180000F90CF91DF9108951F93192FBBDF812F1F
:10019000B9DF84E296DF1F9108959EE1699FB00167
:1001A00011249B01280F311DC901EEDF0895AADF3C
:1001B00080EC87DF08950F931F93182F042F8695E7
:1001C0008695869590E080529E4F2EE1629FB00109
:1001D0001124860F971FD8DF85EC73DFB4DF482F1B
:1001E000212F30E0002369F0209530952770307082
:1001F00081E090E002C0880F991F2A95E2F7842BD6
:100200000DC0209530952770307081E090E002C0DD
:10021000880F991F2A95E2F780958423C8DF1F91E4
:100220000F910895CF92DF92EF92FF920F931F9359
:10023000CF93DF93C62E182FE82EFF24E40EF11C77
:10024000C62FD0E0C20FD11DDD24D394D01A0BC02D
:10025000812F602F4D2DAFDF0F5F802F90E08C1727
:100260009D07B4F31F5F812F90E08E159F0514F456
:100270000C2DF3CFDF91CF911F910F91FF90EF9055
:10028000DF90CF9008952F923F924F925F926F929E
:100290007F928F929F92AF92BF92CF92DF92EF9216
:1002A000FF920F931F93DF93CF93CDB7DEB72797BE
:1002B0000FB6F894DEBF0FBECDBF5C017F836E83A7
:1002C0005B834A833D832C836A01C81AD90A79016A
:1002D000E61AF70A1601220C331C2701440C551CA0
:1002E000D7FC04C091E0692E712C0BC0D094C1944E
:1002F000D108D394309421943108339466246A94BD
:10030000762CF7FC04C081E0882E912C0BC0F09471
:10031000E194F108F3945094419451085394882443
:100320008A94982C21E0201B29838A2D6E81422FEC
:1003300042DFC114D10421F4E114F10409F440C0F6
:10034000CE14DF04FCF083010A0D1B1DEE80FF803C
:10035000AA24BB24A40CB51CCA14DB0424F4E80CA6
:10036000F91CA218B308802F6E2D498124DF060DD9
:10037000171DC80186199709EA81FB818E179F070F
:1003800049F71EC00E811F81080D191D6501AA24A1
:10039000BB24A20CB31CEA14FB0424F4C60CD71C27
:1003A000A418B5088C2D602F498105DF080D191D93
:1003B000C801881999092C813D818217930749F753
:1003C00027960FB6F894DEBF0FBECDBFCF91DF9159
:1003D0001F910F91FF90EF90DF90CF90BF90AF9063
:1003E0009F908F907F906F905F904F903F902F9055
:1003F00008952F923F924F925F926F927F928F92C9
:100400009F92AF92BF92CF92DF92EF92FF920F93A3
:100410001F93CF93DF93282E362E842E9924C40168
:10042000880F991FCC27DD27C81BD90B219666247E
:10043000772451E0452E512CAA24BB24CC24C3940C
:10044000C21AD82CD20C062D030D8D2D602F4C2DE9
:10045000B2DE122D1819812F602F4C2DACDE032D2A
:100460000619812F602F4C2DA6DE8D2D602F4C2D6F
:10047000A2DED62CD20C082D030D8D2D602F4C2D15
:100480009ADE122D1619812F602F4C2D94DE032D2C
:100490000819812F602F4C2D8EDE8D2D602F4C2D55
:1004A0008ADE0894611C711CA40CB51C82E090E0EB
:1004B000480E591EC501880F991F8C0F9D1F1816D5
:1004C000190634F4089481089108AC0EBD1E2296DA
:1004D000861497040CF0B5CFDF91CF911F910F9147
:1004E000FF90EF90DF90CF90BF90AF909F908F9054
:1004F0007F906F905F904F903F902F900895CF9294
:10050000DF92EF92FF920F931F93CF93DF93C82E4A
:10051000D62E7901C0E0D0E0042F10E006C08C2D6B
:100520006D2D4C2F970165DF2196C017D107BCF3C5
:10053000DF91CF911F910F91FF90EF90DF90CF90BF
:100540000895BF92CF92DF92EF92FF920F931F9385
:10055000F82E062FB42ED22EEE24FA94CF2CC40EF1
:10056000F3940BC01E2D100F8F2D612F41E023DE61
:100570008C2D612F41E01FDEE394ED1498F3EE24FF
:100580000150D00E0F5F0BC01E2D1F0D812F602F4D
:1005900041E011DE812F6D2D41E00DDEE394EB147F
:1005A00098F31F910F91FF90EF90DF90CF90BF9045
:1005B00008950F931F93CF93DF938B0190E08050AA
:1005C0009E4F73E0880F991F7A95E1F7DDDDC0E05B
:1005D000D0E0F801EC0FFD1F8081E9DD2196C830E5
:1005E000D105B9F7DF91CF911F910F9108958052F6
:1005F000DEDD0895CF93DF93EC0101C0F8DFFE014B
:10060000219684918823D1F7DF91CF910895CF93DC
:10061000DF93EC0102C02196EADF88818823D9F7B5
:10062000DF91CF910895CF93DF9380EE91E0ACDD21
:10063000C0E0D0E080E0BBDD21968FE0C030D8077D
:10064000C9F7DF91CF910895CF93DF9380E090E1D8
:100650009BDDC0E0D0E080E0AADD219688E0C030DC
:10066000D807C9F7DF91CF910895CF93DF9380E04A
:1006700090E08ADDC0E0D0E080E099DD219681E065
:10068000C03ED807C9F7DF91CF910895869586952A
:10069000869590E080529E4F2EE1629FB00111241A
:1006A000860F971F71DD0895AF92BF92CF92DF92B0
:1006B000EF92FF920F931F93CF93DF93A62EB42E4A
:1006C000D22EC02ED694D694D6947C0100E013C0CE
:1006D000602F6B0D8A2DDADFE70110E005C0FE0107
:1006E000849165DD1F5F21961D15C8F30F5F8EE1B4
:1006F00090E0E80EF91E0C1558F3DF91CF911F9191
:100700000F91FF90EF90DF90CF90BF90AF90089542
:100710008FEF84BB8FE38ABB8BB38F638BBBDC987B
:1007200080ED97E00197F1F7DC9ADD9880EEEADC46
:1007300081E0E8DC82E4C5DC8EE1E4DC80E0E2DC40
:1007400083E4BFDC80E0DEDC80E0DCDC80E4B9DC7C
:100750008EE1D8DC80E0D6DC81E4B3DC82E0D2DC60
:1007600080E0D0DC82E2ADDC8CE9ABDC80E8A9DCA7
:10077000089511BA17BACCDF78DF66DF54DF83E063
:1007800090E090938100809380000895982F8431A9
:1007900008F465C18C3D08F062C1863709F45FC179
:1007A0008F3211F08F3B29F46D3518F4613208F067
:1007B00056C19B3111F0933D29F4613518F46D3227
:1007C00018F04DC16C3511F0613229F4892F8F5228
:1007D000813908F044C16B3239F4923708F490C083
:1007E0009B3708F08DC03BC16C3279F4892F8F564E
:1007F000833008F434C19B3709F431C19C3709F4C4
:100800002EC19D3709F07CC02AC16D32A9F4892F11
:100810008451873008F423C19D3609F420C19E36E7
:1008200009F41DC19E3709F41AC19F3709F417C195
:10083000943D08F465C013C16E3261F4892F8B5664
:10084000823008F40CC1903809F409C1913809F0DC
:1008500057C005C16F3239F49A3609F400C1923895
:1008600009F04EC0FCC0603339F4993609F4F7C082
:10087000933809F045C0F3C0613331F4983609F478
:10088000EEC09438E9F5EBC0623331F4973609F4E1
:10089000E6C09538A9F5E3C0633331F4963609F420
:1008A000DEC0963869F5DBC0643311F0653331F48E
:1008B000953609F4D4C0973819F5D1C0663311F0D4
:1008C000673331F4943609F4CAC09838C9F4C7C004
:1008D000683321F0693311F06A3331F4933609F447
:1008E000BEC0993869F4BBC06B3321F06C3311F092
:1008F0006D3331F4923609F4B2C09A3809F4AFC0BE
:10090000862F8E538330B8F4892F8552823008F4B5
:10091000A6C0923609F4A3C0953709F4A0C0973752
:1009200009F49DC09A3809F49AC0983C09F497C01C
:10093000993C09F494C06F3439F49A3609F48FC0A5
:10094000923809F08EC08BC06E3439F4993609F4B0
:1009500086C0933809F085C082C06D3439F498366A
:1009600009F47DC0943809F07CC079C06C3439F446
:10097000973609F474C0953809F073C070C06B34B1
:1009800039F4963609F46BC0963809F06AC067C02E
:100990006A3411F0693439F4953609F460C0973837
:1009A00009F05FC05CC0683411F0673439F49436E4
:1009B00009F455C0983809F054C051C0663421F08C
:1009C000653411F0643439F4933609F448C0993829
:1009D00009F047C044C0633411F0623429F4923600
:1009E000F1F19A38F1F53BC0613431F49236B9F146
:1009F00080E09A38B9F533C0603581F4892F84518D
:100A0000873068F19B3659F19C3649F1903839F1BD
:100A1000913829F180E0943D28F121C0613551F4ED
:100A2000892F8D568230D8F09E37C9F080E09F37ED
:100A3000C9F415C0623561F4892F8F56833078F080
:100A40009B3769F09C3759F080E09D3759F407C017
:100A5000633539F4923728F080E09B3718F481E051
:100A6000089580E008952F923F924F925F926F9287
:100A70007F928F929F92AF92BF92CF92DF92EF922E
:100A8000FF920F931F93DF93CF93CDB7DEB72997D4
:100A90000FB6F894DEBF0FBECDBF89836A834B8348
:100AA0002C838090800090908100C401880F991F52
:100AB00022273327281B390B2F5F3F4F3987288781
:100AC000AA24BB24F1E06F2E712CCC24DD24D5C0E8
:100AD000FF243A813A0D3D839A819A199E83E981D8
:100AE000EA0DEF8329802A183C803A0C4C804A1882
:100AF0005B805A0CEB80EA1809810F0D802F6D8105
:100B000045DE882321F4802F6D8140E054DB19817C
:100B10001F19812F6D813ADE882321F4812F6D8189
:100B200040E049DB812F6E8131DE882321F4812F63
:100B30006E8140E040DB802F6E8128DE882321F427
:100B4000802F6E8140E037DB1A811F0D8F81612F6E
:100B50001DDE882321F48F81612F40E02CDB822D64
:100B6000612F14DE882321F4822D612F40E023DBE6
:100B70001A811F19822D612F09DE882321F4822D0D
:100B8000612F40E018DB8F81612F00DE882321F484
:100B90008F81612F40E00FDB0B810F0D802F632DC4
:100BA000F5DD882321F4802F632D41E004DB1B81D8
:100BB0001F19812F632DEADD882321F4812F632DF6
:100BC00041E0F9DA812F642DE1DD882321F4812FC2
:100BD000642D41E0F0DA802F642DD8DD882321F4E4
:100BE000802F642D41E0E7DA1C811F0D852D612FD8
:100BF000CDDD882321F4852D612F41E0DCDA8E2DB7
:100C0000612FC4DD882321F48E2D612F41E0D3DADA
:100C10001C811F198E2D612FB9DD882321F48E2DA3
:100C2000612F41E0C8DA852D612FB0DD882321F4E2
:100C3000852D612F41E0BFDAF394F2E0FF1609F051
:100C40005BCFC60CD71CC601880F991F2885398534
:100C5000820F931F181619064CF408948108910806
:100C6000C20ED31E2E5F3F4F398728870894A11CE0
:100C7000B11C82E090E0680E791E8A149B040CF08F
:100C800027CF29960FB6F894DEBF0FBECDBFCF9108
:100C9000DF911F910F91FF90EF90DF90CF90BF9069
:100CA000AF909F908F907F906F905F904F903F900C
:100CB0002F9008950F931F9381E160E042E020E8B8
:100CC00000E010E0AFDA82E161E24EE12CE339DCD2
:100CD00082E16DE24AE024E234DC85E26EE342E048
:100CE00022E0A0DA81E16FE241E020E201E010E0E1
:100CF00099DA8FE06FE244E020E223DC85E76EE3DF
:100D000043E023E000E010E08DDA86E76FE344E1A2
:100D100020E030E06EDB86E760E041E020E882DA48
:100D20008CED60E042E020E87DDA8FEB61E24EE19D
:100D30002CE307DC83ED6DE24AE024E202DC88EC80
:100D40006EE342E022E06EDA8DED6FE241E020E2F8
:100D500001E010E067DA8CED6FE244E020E2F1DBC5
:100D60001F910F9108950F931F93CF93DF93E0E0AE
:100D7000F0E020E830E001E010E0C0E0D0E080B337
:100D800090E082239323892B11F0E00FF11F21962D
:100D9000C830D10541F0C90162E070E0FED19B018D
:100DA000000F111FECCFCF01DF91CF911F910F9159
:100DB000089596B386B3282F30E02270307092FDEC
:100DC00005C0232B59F420E030E010C0232B19F08C
:100DD00022E030E00BC021E030E008C080E860E4B1
:100DE00044E120E030E005DB23E030E0C901089574
:100DF0000F931F93809184006091860040917E0044
:100E00002091820030DE80917E0090917F0080935F
:100E1000840090938500609182009091830060939C
:100E200086009093870026E930E030937F0020937E
:100E30007E0008E710E0109383000093820046E9EB
:100E400028E711DE80917E0090917F0080938400DE
:100E5000909385006091820090918300609386005A
:100E6000909387002CE330E030937F0020937E0046
:100E70002EE130E030938300209382004CE32EE19A
:100E8000F2DD80917E0090917F00809384009093AA
:100E9000850060918200909183006093860090931A
:100EA000870020E530E030937F0020937E00309370
:100EB00083002093820040E520E5D5DD80917E000F
:100EC00090917F00809384009093850060918200D0
:100ED00090918300609386009093870010937F0029
:100EE00000937E0022E330E0309383002093820061
:100EF00048E722E3B8DD80917E0090917F009093D7
:100F0000850080938400809182009091830090936B
:100F100087008093860088EC90E090937F00809318
:100F20007E0084E190E090938300809382001F9183
:100F30000F9108958F929F92AF92BF92CF92DF92BE
:100F4000EF92FF921F93DF93CF9300D000D00F92C8
:100F5000CDB7DEB710927D0010927C0081E0882E24
:100F6000912C6E010894C11CD11C10E6A12E10E03A
:100F7000B12E6AC0F8DE7C0116B31BDF9C01909392
:100F800079008093780010FF5BC080917A00909187
:100F90007B00019709F458C080917C0090917D00FE
:100FA000019690937D0080937C0090927B008092CC
:100FB0007A0000D000D000D0EDB7FEB73196ADB7C3
:100FC000BEB71296DC92CE921197B382A28235837D
:100FD00024830AD18DB79EB706960FB6F8949EBFAC
:100FE0000FBE8DBF84E060E0D8D8C60110DB8091D1
:100FF0007800909179008430910531F1AFEFEA16D5
:10100000F10411F1009729F4F0926500E092640078
:101010001BC08130910529F4F0926700E0926600D0
:1010200013C08230910529F4F0926D00E0926C00BB
:101030000BC0039749F4F0927300E092720004C071
:1010400010927B0010927A0080917C0090917D003C
:1010500005970CF48FCF0F900F900F900F900F907B
:10106000CF91DF911F91FF90EF90DF90CF90BF90D5
:10107000AF909F908F900895EF92FF920F931F93E0
:10108000DF93CF9300D000D00F92CDB7DEB771DBE6
:101090008AE090E0909385008093840024E130E022
:1010A000309387002093860088EC90E090937F0037
:1010B00080937E003093830020938200FBDD1092AA
:1010C00085001092840010928700109286008E0195
:1010D0000F5F1F4F90E6E92E90E0F92E2BDF80E0A6
:1010E00060E05BD800D000D000D0EDB7FEB73196FD
:1010F000ADB7BEB712961C930E931197F382E2829E
:1011000080916C0090916D00958384836DD08DB734
:101110009EB706960FB6F8949EBF0FBE8DBFC8014E
:1011200076DA80E062E039D800D000D000D0EDB7A8
:10113000FEB73196ADB7BEB712961C930E931197BA
:10114000F382E28280917200909173009583848390
:101150004BD08DB79EB706960FB6F8949EBF0FBEC4
:101160008DBFC80154DA809184006091860040915F
:101170006C002091720077DC80916C0090916D0082
:101180009093850080938400809172009091730009
:101190009093870080938600A1CF97FB092E0726A6
:1011A0000AD077FD04D00CD006D000201AF4709538
:1011B00061957F4F0895F6F7909581959F4F08951B
:1011C000AA1BBB1B51E107C0AA1FBB1FA617B7076D
:1011D00010F0A61BB70B881F991F5A95A9F7809589
:1011E0009095BC01CD010895AEE0B0E0E9EFF8E0E4
:1011F00098C20D891E8986E08C831A8309838FEF3C
:101200009FE79E838D839E01275E3F4FCE0101960F
:101210006F89788DA90109D02F813885020F131F9E
:10122000F80110822E96E4E098C2ABE0B0E0EAE16B
:10123000F9E069C23C012B015A01FC0117821682B8
:10124000838181FD03C06FEF7FEFB9C19AE0892EE2
:101250001E010894211C311CF3012381F20123FD9E
:10126000859123FF81912F01882309F4A5C185323F
:1012700039F423FD859123FF81912F01853221F4DB
:1012800090E0B301B6D1E8CF982FFF24EE24992443
:10129000FFE1FF15D0F09B3269F09C3228F49032C8
:1012A00059F0933291F40EC09D3249F0903369F4B5
:1012B00041E024C052E0F52A84E0F82A28C098E0F2
:1012C000F92A25C0E0E1FE2A22C0F7FC29C0892FB7
:1012D00080538A3070F4F6FE05C0989C902C11243F
:1012E000980E15C0E89CE02C1124E80EF0E2FF2ACD
:1012F0000EC09E3229F4F6FC5FC140E4F42A07C018
:101300009C3619F450E8F52A02C0983649F4F201E7
:1013100023FD959123FF91912F01992309F0B8CFD7
:10132000892F8554833018F08052833038F444E09C
:1013300050E0A40EB51E5FE359830FC0933631F021
:10134000933779F0933509F052C01FC0F5018081C1
:10135000898342E050E0A40EB51E610101E010E077
:1013600011C0F501C080D180F6FC03C06FEF7FEFA4
:1013700002C0692D70E042E050E0A40EB51EC60127
:101380002DD18C015FE7F52213C0F501C080D1801B
:10139000F6FC03C06FEF7FEF02C0692D70E042E002
:1013A00050E0A40EB51EC6010ED18C0150E8F52AFE
:1013B000F3FE06C018C080E290E0B3011AD1EA94AF
:1013C0008E2D90E008171907B0F30DC0F601F7FC59
:1013D0008591F7FE81916F0190E0B3010AD1E11090
:1013E000EA94015010400115110581F7E2C09436CE
:1013F00011F0993661F5F7FE08C0F50120813181C1
:101400004281538184E090E00AC0F501808191819E
:101410009C01442737FD4095542F82E090E0A80EB0
:10142000B91E9FE6F92257FF09C0509540953095A7
:1014300021953F4F4F4F5F4FE0E8FE2ACA01B901A7
:10144000A1012AE030E001D1D82ED2183FC0953753
:1014500029F41F2D1F7E2AE030E01DC01F2D197FAB
:101460009F3661F0903720F4983509F0A5C00FC081
:10147000903739F0983709F09FC004C028E030E079
:101480000AC0106114FD146020E130E004C014FDB6
:10149000166020E132E017FF08C0F501608171811C
:1014A0008281938144E050E008C0F5018081918100
:1014B000BC0180E090E042E050E0A40EB51EA10126
:1014C000C4D0D82ED2188FE7F82EF122F6FE0BC02A
:1014D0005EEFF522D91438F4F4FE07C0F2FC05C023
:1014E0008FEEF82202C01D2D01C0192DF4FE0DC093
:1014F000FE01ED0DF11D8081803319F499EEF92282
:1015000008C01F5FF2FE05C003C08F2D867809F06A
:101510001F5F0F2DF3FC13C0F0FE0EC01E1510F060
:101520009D2C0AC09D2C9E0C911A1E2D05C080E298
:1015300090E0B3015ED01F5F1E15C8F304C01E15F6
:1015400010F4E11A01C0EE2404FF0EC080E390E025
:10155000B3014FD002FF1BC001FD03C088E790E03C
:101560000EC088E590E00BC0802F867881F001FFE7
:1015700002C08BE201C080E2F7FC8DE290E0B30193
:1015800038D005C080E390E0B30133D09A94D914E9
:10159000C8F3DA94F101ED0DF11D808190E0B30103
:1015A00028D0DD20B1F705C080E290E0B30121D062
:1015B000EA94EE20C9F750CEF30166817781CB0122
:1015C0002B96E2E1BCC0FC01059061507040011017
:1015D000D8F7809590958E0F9F1F0895FC0161505C
:1015E000704001900110D8F7809590958E0F9F1F45
:1015F00008950F931F93CF93DF938C01EB018B81A1
:1016000081FF1BC082FF0DC02E813F818C819D8197
:101610002817390764F4E881F9810193F983E88395
:1016200006C0E885F985802F0995892B31F48E81D4
:101630009F8101969F838E8302C00FEF1FEFC80129
:10164000DF91CF911F910F910895FA01AA272830B9
:1016500051F1203181F1E8946F936E7F6E5F7F4F7F
:101660008F4F9F4FAF4FB1E03ED0B4E03CD0670FFB
:10167000781F891F9A1FA11D680F791F8A1F911D4E
:10168000A11D6A0F711D811D911DA11D20D009F49E
:1016900068943F912AE0269F11243019305D3193E0
:1016A000DEF6CF010895462F4770405D4193B3E0C9
:1016B0000FD0C9F7F6CF462F4F70405D4A3318F070
:1016C000495D31FD4052419302D0A9F7EACFB4E021
:1016D000A6959795879577956795BA95C9F70097D9
:1016E0006105710508959B01AC010A2E069457957A
:1016F000479537952795BA95C9F7620F731F841FD1
:10170000951FA01D08952F923F924F925F926F9266
:101710007F928F929F92AF92BF92CF92DF92EF9281
:10172000FF920F931F93CF93DF93CDB7DEB7CA1B02
:10173000DB0B0FB6F894DEBF0FBECDBF09942A882D
:10174000398848885F846E847D848C849B84AA84D5
:10175000B984C884DF80EE80FD800C811B81AA8162
:10176000B981CE0FD11D0FB6F894DEBF0FBECDBF2D
:08177000ED010895F894FFCF8C
:10177800256400016400640063003C00630000000D
:06178800B4006300000044
:00000001FF
