:1000000010C02AC029C028C027C026C025C024C0CF
:1000100023C022C021C020C01FC01EC01DC01CC0E4
:100020001BC011241FBECFE5D2E0DEBFCDBF10E064
:10003000A0E6B0E0ECE1F2E002C005900D92A83B32
:10004000B107D9F710E0A8EBB0E001C01D92A43CC5
:10005000B107E1F7D7D0E0C0D3CF8FEF84BB81BB2E
:100060008ABB87BB089520E030E040E116C0E091F4
:10007000BA00F091BB00E20FF31F8081803209F4D7
:100080001082E091BA00F091BB00E20FF31F808173
:100090008C3209F440832F5F3F4F8091B6009091DE
:1000A000B700281739071CF308958C3219F4E0E1E2
:1000B000F0E01BC080344CF4E82FFF27E7FDF095FB
:1000C000EE0FFF1FE050F0400DC0803419F4E0E463
:1000D000F0E00BC0E82FFF27E7FDF095EE0FFF1FC4
:1000E000E850F0400190F081E02DCF010895AF92EB
:1000F000BF92CF92DF92EF92FF920F931F93CF9315
:10010000DF934091BA005091BB002091B60030912E
:10011000B70063E0A62EB12CA20EB31E7C016A01CB
:10012000C80ED91EEC01C21BD30B2497C40FD51FD8
:100130000CEB10E0F6019081AE14BF041CF4888132
:10014000B4DF0AC0892F8C52883320F0F801118265
:10015000108205C0892FA9DFF8019183808308945C
:10016000C11CD11C0894E11CF11C21960E5F1F4F8D
:10017000F0E0043C1F07F1F6DF91CF911F910F9142
:10018000FF90EF90DF90CF90BF90AF9008950F93C6
:100190001F938C0168DF85B38F6785BB82B3817E37
:1001A00082BB92B3000F111FF801E255FF4F80810F
:1001B000982B92BB95B304541F4FF8018081809512
:1001C0008068892385BB8091B8009091B900019621
:1001D0009093B9008093B8001F910F910895AC01DE
:1001E00020E030E0FA01E20FF31F8081181644F49A
:1001F0002336310519F02F5F3F4FF4CF20E030E078
:10020000C90108958FEF84BB81BB8ABB87BB82BBCA
:0C02100088BB85BB8BBBFBCFF894FFCFF5
:10021C003F0006005B004F0066006D007D0007008C
:10022C007F00670080004000100077007C003900E0
:10023C005E00790071003D00740030001E007500F6
:10024C003800150037003F007300670033006D0065
:10025C0078003E001C002A0076006E005B00100047
:08026C00080004000200040078
:00000001FF
