:1000000010C02AC029C028C027C026C025C024C0CF
:1000100023C022C021C020C01FC01EC01DC01CC0E4
:100020001BC011241FBECFE5D2E0DEBFCDBF10E064
:10003000A0E6B0E0E8E3F6E102C005900D92A63735
:10004000B107D9F710E0A6E7B0E001C01D92A438CF
:10005000B107E1F792D7EECAD3CFDF93CF930F92D8
:10006000CDB7DEB7198203C089818F5F898389810B
:100070008830D0F30F90CF91DF9108958FEF84BB3C
:100080008FE38ABB8BB38F638BBB0895DF93CF93D2
:100090000F92CDB7DEB714BA8BB3897F8BBB1982B1
:1000A00003C089818F5F898389818830D0F383B3CE
:1000B0009FEF94BB9BB396609BBB0F90CF91DF915A
:1000C00008951F93DF93CF930F92CDB7DEB7182F0C
:1000D000DDDF90E083709070892BD1F315BB8BB37B
:1000E0008A7F8BBB198203C089818F5F8983898155
:1000F0008830D0F38BB385608BBB0F90CF91DF91AD
:100100001F9108951F93DF93CF930F92CDB7DEB762
:10011000182FBCDF90E083709070892BD1F315BB52
:100120008BB3827F8BBB198203C089818F5F8983E8
:1001300089818830D0F38BB38D608BBB0F90CF91CA
:10014000DF911F910895DF93CF930F92CDB7DEB764
:100150009DDF90E083709070892BD1F314BA8BB33C
:10016000817F8BBB198203C089818F5F89838981DD
:100170008830D0F383B39BB39E609BBB9FEF94BB4F
:100180000F90CF91DF9108951F93192FBBDF812F1F
:10019000B9DF84E296DF1F9108959EE1699FB00167
:1001A00011249B01280F311DC901EEDF0895AADF3C
:1001B00080EC87DF08950F931F93182F042F8695E7
:1001C0008695869590E080529E4F2EE1629FB00109
:1001D0001124860F971FD8DF85EC73DFB4DF482F1B
:1001E000212F30E0002369F0209530952770307082
:1001F00081E090E002C0880F991F2A95E2F7842BD6
:100200000DC0209530952770307081E090E002C0DD
:10021000880F991F2A95E2F780958423C8DF1F91E4
:100220000F910895CF92DF92EF92FF920F931F9359
:10023000CF93DF93C62E182FE82EFF24E40EF11C77
:10024000C62FD0E0C20FD11DDD24D394D01A0BC02D
:10025000812F602F4D2DAFDF0F5F802F90E08C1727
:100260009D07B4F31F5F812F90E08E159F0514F456
:100270000C2DF3CFDF91CF911F910F91FF90EF9055
:10028000DF90CF9008952F923F924F925F926F929E
:100290007F928F929F92AF92BF92CF92DF92EF9216
:1002A000FF920F931F93DF93CF93CDB7DEB72797BE
:1002B0000FB6F894DEBF0FBECDBF5C017F836E83A7
:1002C0005B834A833D832C836A01C81AD90A79016A
:1002D000E61AF70A1601220C331C2701440C551CA0
:1002E000D7FC04C091E0692E712C0BC0D094C1944E
:1002F000D108D394309421943108339466246A94BD
:10030000762CF7FC04C081E0882E912C0BC0F09471
:10031000E194F108F3945094419451085394882443
:100320008A94982C21E0201B29838A2D6E81422FEC
:1003300042DFC114D10421F4E114F10409F440C0F6
:10034000CE14DF04FCF083010A0D1B1DEE80FF803C
:10035000AA24BB24A40CB51CCA14DB0424F4E80CA6
:10036000F91CA218B308802F6E2D498124DF060DD9
:10037000171DC80186199709EA81FB818E179F070F
:1003800049F71EC00E811F81080D191D6501AA24A1
:10039000BB24A20CB31CEA14FB0424F4C60CD71C27
:1003A000A418B5088C2D602F498105DF080D191D93
:1003B000C801881999092C813D818217930749F753
:1003C00027960FB6F894DEBF0FBECDBFCF91DF9159
:1003D0001F910F91FF90EF90DF90CF90BF90AF9063
:1003E0009F908F907F906F905F904F903F902F9055
:1003F00008952F923F924F925F926F927F928F92C9
:100400009F92AF92BF92CF92DF92EF92FF920F93A3
:100410001F93CF93DF93282E362E842E9924C40168
:10042000880F991FCC27DD27C81BD90B219666247E
:10043000772451E0452E512CAA24BB24CC24C3940C
:10044000C21AD82CD20C062D030D8D2D602F4C2DE9
:10045000B2DE122D1819812F602F4C2DACDE032D2A
:100460000619812F602F4C2DA6DE8D2D602F4C2D6F
:10047000A2DED62CD20C082D030D8D2D602F4C2D15
:100480009ADE122D1619812F602F4C2D94DE032D2C
:100490000819812F602F4C2D8EDE8D2D602F4C2D55
:1004A0008ADE0894611C711CA40CB51C82E090E0EB
:1004B000480E591EC501880F991F8C0F9D1F1816D5
:1004C000190634F4089481089108AC0EBD1E2296DA
:1004D000861497040CF0B5CFDF91CF911F910F9147
:1004E000FF90EF90DF90CF90BF90AF909F908F9054
:1004F0007F906F905F904F903F902F900895CF9294
:10050000DF92EF92FF920F931F93CF93DF93C82E4A
:10051000D62E7901C0E0D0E0042F10E006C08C2D6B
:100520006D2D4C2F970165DF2196C017D107BCF3C5
:10053000DF91CF911F910F91FF90EF90DF90CF90BF
:100540000895BF92CF92DF92EF92FF920F931F9385
:10055000F82E062FB42ED22EEE24FA94CF2CC40EF1
:10056000F3940BC01E2D100F8F2D612F41E023DE61
:100570008C2D612F41E01FDEE394ED1498F3EE24FF
:100580000150D00E0F5F0BC01E2D1F0D812F602F4D
:1005900041E011DE812F6D2D41E00DDEE394EB147F
:1005A00098F31F910F91FF90EF90DF90CF90BF9045
:1005B00008950F931F93CF93DF938B0190E08050AA
:1005C0009E4F73E0880F991F7A95E1F7DDDDC0E05B
:1005D000D0E0F801EC0FFD1F8081E9DD2196C830E5
:1005E000D105B9F7DF91CF911F910F9108958052F6
:1005F000DEDD0895CF93DF93EC0101C0F8DFFE014B
:10060000219684918823D1F7DF91CF910895CF93DC
:10061000DF93EC0102C02196EADF88818823D9F7B5
:10062000DF91CF910895CF93DF9380EE91E0ACDD21
:10063000C0E0D0E080E0BBDD21968FE0C030D8077D
:10064000C9F7DF91CF910895CF93DF9380E090E1D8
:100650009BDDC0E0D0E080E0AADD219688E0C030DC
:10066000D807C9F7DF91CF910895CF93DF9380E04A
:1006700090E08ADDC0E0D0E080E099DD219681E065
:10068000C03ED807C9F7DF91CF910895869586952A
:10069000869590E080529E4F2EE1629FB00111241A
:1006A000860F971F71DD0895AF92BF92CF92DF92B0
:1006B000EF92FF920F931F93CF93DF93A62EB42E4A
:1006C000D22EC02ED694D694D6947C0100E013C0CE
:1006D000602F6B0D8A2DDADFE70110E005C0FE0107
:1006E000849165DD1F5F21961D15C8F30F5F8EE1B4
:1006F00090E0E80EF91E0C1558F3DF91CF911F9191
:100700000F91FF90EF90DF90CF90BF90AF90089542
:100710008FEF84BB8FE38ABB8BB38F638BBBDC987B
:1007200080ED97E00197F1F7DC9ADD9880EEEADC46
:1007300081E0E8DC82E4C5DC8EE1E4DC80E0E2DC40
:1007400083E4BFDC80E0DEDC80E0DCDC80E4B9DC7C
:100750008EE1D8DC80E0D6DC81E4B3DC82E0D2DC60
:1007600080E0D0DC82E2ADDC8CE9ABDC80E8A9DCA7
:10077000089511BACDDF79DF67DF55DF83E090E0C0
:1007800090937D0080937C000895982F843108F425
:1007900065C18C3D08F062C1863709F45FC18F32B4
:1007A00011F08F3B29F46D3518F4613208F056C111
:1007B0009B3111F0933D29F4613518F46D3218F036
:1007C0004DC16C3511F0613229F4892F8F52813976
:1007D00008F044C16B3239F4923708F490C09B376B
:1007E00008F08DC03BC16C3279F4892F8F5683306D
:1007F00008F434C19B3709F431C19C3709F42EC188
:100800009D3709F07CC02AC16D32A9F4892F84512B
:10081000873008F423C19D3609F420C19E3609F4BF
:100820001DC19E3709F41AC19F3709F417C1943DC1
:1008300008F465C013C16E3261F4892F8B56823083
:1008400008F40CC1903809F409C1913809F057C077
:1008500005C16F3239F49A3609F400C1923809F0B3
:100860004EC0FCC0603339F4993609F4F7C09338B0
:1008700009F045C0F3C0613331F4983609F4EEC095
:100880009438E9F5EBC0623331F4973609F4E6C0E9
:100890009538A9F5E3C0633331F4963609F4DEC028
:1008A000963869F5DBC0643311F0653331F4953661
:1008B00009F4D4C0973819F5D1C0663311F0673305
:1008C00031F4943609F4CAC09838C9F4C7C0683303
:1008D00021F0693311F06A3331F4933609F4BEC064
:1008E000993869F4BBC06B3321F06C3311F06D3370
:1008F00031F4923609F4B2C09A3809F4AFC0862FA9
:100900008E538330B8F4892F8552823008F4A6C004
:10091000923609F4A3C0953709F4A0C0973709F4BB
:100920009DC09A3809F49AC0983C09F497C0993C44
:1009300009F494C06F3439F49A3609F48FC09238B0
:1009400009F08EC08BC06E3439F4993609F486C034
:10095000933809F085C082C06D3439F4983609F4B3
:100960007DC0943809F07CC079C06C3439F4973676
:1009700009F474C0953809F073C070C06B3439F451
:10098000963609F46BC0963809F06AC067C06A34BD
:1009900011F0693439F4953609F460C0973809F0DC
:1009A0005FC05CC0683411F0673439F4943609F4E0
:1009B00055C0983809F054C051C0663421F06534F0
:1009C00011F0643439F4933609F448C0993809F0C9
:1009D00047C044C0633411F0623429F49236F1F117
:1009E0009A38F1F53BC0613431F49236B9F180E0C8
:1009F0009A38B9F533C0603581F4892F8451873036
:100A000068F19B3659F19C3649F1903839F19138AB
:100A100029F180E0943D28F121C0613551F4892FFE
:100A20008D568230D8F09E37C9F080E09F37C9F4E8
:100A300015C0623561F4892F8F56833078F09B376B
:100A400069F09C3759F080E09D3759F407C0633551
:100A500039F4923728F080E09B3718F481E008954C
:100A600080E008952F923F924F925F926F927F9213
:100A70008F929F92AF92BF92CF92DF92EF92FF92AE
:100A80000F931F93DF93CF9300D00F92CDB7DEB7B4
:100A90008983262E342EC22E80907C0090907D007B
:100AA000C401880F991F22273327281B390B2F5F7A
:100AB0003F4F3B832A8366247724F1E04F2E512C4D
:100AC000AA24BB24CDC0D82CF980F80CE62C162D16
:100AD000120D8F2D612F59DE882321F48F2D612F68
:100AE00040E069DB09810D19802F612F4EDE8823DC
:100AF00021F4802F612F40E05EDB122D1E19802F24
:100B0000612F43DE882321F4802F612F40E053DBE7
:100B10008F2D612F3ADE882321F48F2D612F40E045
:100B20004ADBF980FE0C1D2D120D8F2D612F2DDE5D
:100B3000882321F48F2D612F40E03DDB09810E19C0
:100B4000802F612F22DE882321F4802F612F40E047
:100B500032DB122D1D19802F612F17DE882321F41F
:100B6000802F612F40E027DB8F2D612F0EDE882341
:100B700021F48F2D612F40E01EDBFD2CF30C1E2D88
:100B80001C0D8F2D612F01DE882321F48F2D612F05
:100B900041E011DB032D0D19802F612FF6DD882335
:100BA00021F4802F612F41E006DB1C2D1E19802FC0
:100BB000612FEBDD882321F4802F612F41E0FBDAE8
:100BC0008F2D612FE2DD882321F48F2D612F41E0ED
:100BD000F2DAFE2CF30C1D2D1C0D8F2D612FD5DDAF
:100BE000882321F48F2D612F41E0E5DA032D0E19C2
:100BF000802F612FCADD882321F4802F612F41E0EF
:100C0000DADA1C2D1D19802F612FBFDD882321F416
:100C1000802F612F41E0CFDA8F2D612FB6DD882341
:100C200021F48F2D612F41E0C6DAA40CB51CC5015B
:100C3000880F991FEA81FB818E0F9F1F18161906D6
:100C400044F4089481089108AE0EBF1E3296FB83CF
:100C5000EA830894611C711C22E030E0420E531EAE
:100C6000861497040CF02FCF0F900F900F90CF9118
:100C7000DF911F910F91FF90EF90DF90CF90BF9089
:100C8000AF909F908F907F906F905F904F903F902C
:100C90002F9008950F931F9381E160E042E020E8D8
:100CA00000E010E0BFDA82E161E24EE12CE349DCD2
:100CB00082E16DE24AE024E244DC85E26EE342E058
:100CC00022E0B0DA81E16FE241E020E201E010E0F1
:100CD000A9DA8FE06FE244E020E233DC85E76EE3DF
:100CE00043E023E000E010E09DDA86E76FE344E1B3
:100CF00020E030E07EDB86E760E041E020E892DA49
:100D00008CED60E042E020E88DDA8FEB61E24EE1AD
:100D10002CE317DC83ED6DE24AE024E212DC88EC80
:100D20006EE342E022E07EDA8DED6FE241E020E208
:100D300001E010E077DA8CED6FE244E020E201DCC4
:100D40001F910F9108950F931F93CF93DF93E0E0CE
:100D5000F0E020E830E001E010E0C0E0D0E080B357
:100D600090E082239323892B11F0E00FF11F21964D
:100D7000C830D10541F0C90162E070E06ED19B013D
:100D8000000F111FECCFCF01DF91CF911F910F9179
:100D9000089596B386B3282F30E02170307091FD0E
:100DA00008C0232B19F023E030E00AC020E030E037
:100DB00007C0232B19F022E030E002C021E030E030
:100DC000C9010895CF93DF93BEDFEC01E2DF90937A
:100DD0007900809378002091760030917700281771
:100DE000390711F5CF3FD105F9F02115310529F467
:100DF000D0936500C093640010C08130910529F440
:100E0000D0936700C09366000FC08230910529F42B
:100E1000D0936D00C0936C0007C02330310521F4DE
:100E2000D0937300C0937200909377008093760004
:100E3000DF91CF9108950F931F938091800060916F
:100E4000820040917A0020917E000CDE80917A0031
:100E500090917B00809380009093810060917E0050
:100E600090917F00609382009093830026E930E0A8
:100E700030937B0020937A0008E710E010937F0006
:100E800000937E0046E928E7EDDD80917A0090919D
:100E90007B00809380009093810060917E00909110
:100EA0007F0060938200909383002CE330E03093C6
:100EB0007B0020937A002EE130E030937F00209376
:100EC0007E004CE32EE1CEDD80917A0090917B0094
:100ED000809380009093810060917E0090917F00CC
:100EE000609382009093830020E530E030937B0094
:100EF00020937A0030937F0020937E0040E520E528
:100F0000B1DD80917A0090917B0080938000909376
:100F1000810060917E0090917F00609382009093A9
:100F2000830010937B0000937A0022E330E030933B
:100F30007F0020937E0048E722E394DD80917A00D1
:100F400090917B00909381008093800080917E003F
:100F500090917F00909383008093820088EC90E0D2
:100F600090937B0080937A0084E190E090937F00DF
:100F700080937E001F910F910895EF92FF920F933F
:100F80001F93DF93CF9300D000D00F92CDB7DEB781
:100F9000F0DB8AE090E0909381008093800024E170
:100FA00030E0309383002093820088EC90E09093AF
:100FB0007B0080937A0030937F0020937E006ADE6E
:100FC0001092810010928000109283001092820093
:100FD0008E010F5F1F4F80E6E82E80E0F82EF2DED4
:100FE00080E060E0DAD800D000D000D0EDB7FEB7E6
:100FF0003196ADB7BEB712961C930E931197F3823C
:10100000E282809164009091650046969583848386
:101010004BD08DB79EB706960FB6F8949EBF0FBE05
:101020008DBFC801F4DA8091800060918200409108
:1010300064002091660016DD809164009091650047
:10104000909381008093800080916600909167006A
:101050009093830080938200C2CF97FB092E0726CE
:101060000AD077FD04D00CD006D000201AF4709579
:1010700061957F4F0895F6F7909581959F4F08955C
:10108000AA1BBB1B51E107C0AA1FBB1FA617B707AE
:1010900010F0A61BB70B881F991F5A95A9F78095CA
:1010A0009095BC01CD010895AEE0B0E0E9E5F8E02F
:1010B00098C20D891E8986E08C831A8309838FEF7D
:1010C0009FE79E838D839E01275E3F4FCE01019651
:1010D0006F89788DA90109D02F813885020F131FE0
:1010E000F80110822E96E4E098C2ABE0B0E0EAE7A7
:1010F000F8E069C23C012B015A01FC0117821682FB
:10110000838181FD03C06FEF7FEFB9C19AE0892E23
:101110001E010894211C311CF3012381F20123FDDF
:10112000859123FF81912F01882309F4A5C1853280
:1011300039F423FD859123FF81912F01853221F41C
:1011400090E0B301B6D1E8CF982FFF24EE24992484
:10115000FFE1FF15D0F09B3269F09C3228F4903209
:1011600059F0933291F40EC09D3249F0903369F4F6
:1011700041E024C052E0F52A84E0F82A28C098E033
:10118000F92A25C0E0E1FE2A22C0F7FC29C0892FF8
:1011900080538A3070F4F6FE05C0989C902C112480
:1011A000980E15C0E89CE02C1124E80EF0E2FF2A0E
:1011B0000EC09E3229F4F6FC5FC140E4F42A07C059
:1011C0009C3619F450E8F52A02C0983649F4F20129
:1011D00023FD959123FF91912F01992309F0B8CF19
:1011E000892F8554833018F08052833038F444E0DE
:1011F00050E0A40EB51E5FE359830FC0933631F063
:10120000933779F0933509F052C01FC0F501808102
:10121000898342E050E0A40EB51E610101E010E0B8
:1012200011C0F501C080D180F6FC03C06FEF7FEFE5
:1012300002C0692D70E042E050E0A40EB51EC60168
:101240002DD18C015FE7F52213C0F501C080D1805C
:10125000F6FC03C06FEF7FEF02C0692D70E042E043
:1012600050E0A40EB51EC6010ED18C0150E8F52A3F
:10127000F3FE06C018C080E290E0B3011AD1EA94F0
:101280008E2D90E008171907B0F30DC0F601F7FC9A
:101290008591F7FE81916F0190E0B3010AD1E110D1
:1012A000EA94015010400115110581F7E2C094360F
:1012B00011F0993661F5F7FE08C0F5012081318102
:1012C0004281538184E090E00AC0F50180819181E0
:1012D0009C01442737FD4095542F82E090E0A80EF2
:1012E000B91E9FE6F92257FF09C0509540953095E9
:1012F00021953F4F4F4F5F4FE0E8FE2ACA01B901E9
:10130000A1012AE030E001D1D82ED2183FC0953794
:1013100029F41F2D1F7E2AE030E01DC01F2D197FEC
:101320009F3661F0903720F4983509F0A5C00FC0C2
:10133000903739F0983709F09FC004C028E030E0BA
:101340000AC0106114FD146020E130E004C014FDF7
:10135000166020E132E017FF08C0F501608171815D
:101360008281938144E050E008C0F5018081918141
:10137000BC0180E090E042E050E0A40EB51EA10167
:10138000C4D0D82ED2188FE7F82EF122F6FE0BC06B
:101390005EEFF522D91438F4F4FE07C0F2FC05C064
:1013A0008FEEF82202C01D2D01C0192DF4FE0DC0D4
:1013B000FE01ED0DF11D8081803319F499EEF922C3
:1013C00008C01F5FF2FE05C003C08F2D867809F0AC
:1013D0001F5F0F2DF3FC13C0F0FE0EC01E1510F0A2
:1013E0009D2C0AC09D2C9E0C911A1E2D05C080E2DA
:1013F00090E0B3015ED01F5F1E15C8F304C01E1538
:1014000010F4E11A01C0EE2404FF0EC080E390E066
:10141000B3014FD002FF1BC001FD03C088E790E07D
:101420000EC088E590E00BC0802F867881F001FF28
:1014300002C08BE201C080E2F7FC8DE290E0B301D4
:1014400038D005C080E390E0B30133D09A94D9142A
:10145000C8F3DA94F101ED0DF11D808190E0B30144
:1014600028D0DD20B1F705C080E290E0B30121D0A3
:10147000EA94EE20C9F750CEF30166817781CB0163
:101480002B96E2E1BCC0FC01059061507040011058
:10149000D8F7809590958E0F9F1F0895FC0161509D
:1014A000704001900110D8F7809590958E0F9F1F86
:1014B00008950F931F93CF93DF938C01EB018B81E2
:1014C00081FF1BC082FF0DC02E813F818C819D81D9
:1014D0002817390764F4E881F9810193F983E883D7
:1014E00006C0E885F985802F0995892B31F48E8116
:1014F0009F8101969F838E8302C00FEF1FEFC8016B
:10150000DF91CF911F910F910895FA01AA272830FA
:1015100051F1203181F1E8946F936E7F6E5F7F4FC0
:101520008F4F9F4FAF4FB1E03ED0B4E03CD0670F3C
:10153000781F891F9A1FA11D680F791F8A1F911D8F
:10154000A11D6A0F711D811D911DA11D20D009F4DF
:1015500068943F912AE0269F11243019305D319321
:10156000DEF6CF010895462F4770405D4193B3E00A
:101570000FD0C9F7F6CF462F4F70405D4A3318F0B1
:10158000495D31FD4052419302D0A9F7EACFB4E062
:10159000A6959795879577956795BA95C9F700971A
:1015A0006105710508959B01AC010A2E06945795BB
:1015B000479537952795BA95C9F7620F731F841F12
:1015C000951FA01D08952F923F924F925F926F92A8
:1015D0007F928F929F92AF92BF92CF92DF92EF92C3
:1015E000FF920F931F93CF93DF93CDB7DEB7CA1B44
:1015F000DB0B0FB6F894DEBF0FBECDBF09942A886F
:10160000398848885F846E847D848C849B84AA8416
:10161000B984C884DF80EE80FD800C811B81AA81A3
:10162000B981CE0FD11D0FB6F894DEBF0FBECDBF6E
:08163000ED010895F894FFCFCD
:10163800256400016400640063003C004000000071
:06164800B40040000000A8
:00000001FF
