:1000000010C02AC029C028C027C026C025C024C0CF
:1000100023C022C021C020C01FC01EC01DC01CC0E4
:100020001BC011241FBECFE5D2E0DEBFCDBF11E063
:10003000A0E6B0E0E6E7F9E102C005900D92A63037
:10004000B107D9F711E0A6E0B1E001C01D92A232DC
:10005000B107E1F740D98DCCD3CFDF93CF930F9287
:10006000CDB7DEB7198203C089818F5F898389810B
:100070008830D0F30F90CF91DF9108958FEF84BB3C
:100080008FE38ABB8BB38F638BBB0895DF93CF93D2
:100090000F92CDB7DEB714BA8BB3897F8BBB1982B1
:1000A00003C089818F5F898389818830D0F383B3CE
:1000B0009FEF94BB9BB396609BBB0F90CF91DF915A
:1000C00008951F93DF93CF930F92CDB7DEB7182F0C
:1000D000DDDF90E083709070892BD1F315BB8BB37B
:1000E0008A7F8BBB198203C089818F5F8983898155
:1000F0008830D0F38BB385608BBB0F90CF91DF91AD
:100100001F9108951F93DF93CF930F92CDB7DEB762
:10011000182FBCDF90E083709070892BD1F315BB52
:100120008BB3827F8BBB198203C089818F5F8983E8
:1001300089818830D0F38BB38D608BBB0F90CF91CA
:10014000DF911F910895DF93CF930F92CDB7DEB764
:100150009DDF90E083709070892BD1F314BA8BB33C
:10016000817F8BBB198203C089818F5F89838981DD
:100170008830D0F383B39BB39E609BBB9FEF94BB4F
:100180000F90CF91DF9108951F93192FBBDF812F1F
:10019000B9DF84E296DF1F9108959EE1699FB00167
:1001A00011249B01280F311DC901EEDF0895AADF3C
:1001B00080EC87DF08950F931F93182F042F8695E7
:1001C0008695869590E080529E4F2EE1629FB00109
:1001D0001124860F971FD8DF85EC73DFB4DF482F1B
:1001E000212F30E0002369F0209530952770307082
:1001F00081E090E002C0880F991F2A95E2F7842BD6
:100200000DC0209530952770307081E090E002C0DD
:10021000880F991F2A95E2F780958423C8DF1F91E4
:100220000F910895CF92DF92EF92FF920F931F9359
:10023000CF93DF93D62EC02E082FE82EFF24E40E96
:10024000F11CC62FD0E0C20FD11D0BC0802F612F33
:100250004C2DB1DF1F5F812F90E08C179D07B4F309
:100260000F5F802F90E08E159F0514F41D2DF3CFA6
:10027000DF91CF911F910F91FF90EF90DF90CF9082
:1002800008952F923F924F925F926F927F928F923A
:100290009F92AF92BF92CF92DF92EF92FF920F9315
:1002A0001F93DF93CF93CDB7DEB727970FB6F894A0
:1002B000DEBF0FBECDBF5C017F836E835A8349834F
:1002C0003C832B830D836A01C81AD90A7901E61A87
:1002D000F70A1601220C331C2701440C551CD7FCCD
:1002E00004C091E0692E712C0BC0D094C194D10848
:1002F000D394309421943108339466246A94762CF4
:10030000F7FC04C081E0882E912C0BC0F094E1949E
:10031000F108F394509441945108539488248A949A
:10032000982C8A2D6E814D8146DFC114D10421F4B1
:10033000E114F10409F440C0CE14DF04FCF08301A1
:100340000A0D1B1DEE80FF80AA24BB24A40CB51C43
:10035000CA14DB0424F4E80CF91CA218B308802F9B
:100360006E2D4D8128DF060D171DC80186199709CE
:1003700029813A818217930749F71EC00E811F8198
:10038000080D191D6501AA24BB24A20CB31CEA1494
:10039000FB0424F4C60CD71CA418B5088C2D602FC0
:1003A0004D8109DF080D191DC80188199909EB81D4
:1003B000FC818E179F0749F727960FB6F894DEBF8A
:1003C0000FBECDBFCF91DF911F910F91FF90EF90A6
:1003D000DF90CF90BF90AF909F908F907F906F9065
:1003E0005F904F903F902F9008952F923F924F92A1
:1003F0005F926F927F928F929F92AF92BF92CF92B5
:10040000DF92EF92FF920F931F93CF93DF93282EEB
:10041000362EC22E842E9924C401880F991FCC2712
:10042000DD27C81BD90B21966624772451E0452E81
:10043000512CAA24BB24D82CD20C062D030D8D2DB3
:10044000602F4C2DB8DE122D1819812F602F4C2DE6
:10045000B2DE032D0619812F602F4C2DACDE8D2DC1
:10046000602F4C2DA8DED62CD20C082D030D8D2D1F
:10047000602F4C2DA0DE122D1619812F602F4C2DD0
:100480009ADE032D0819812F602F4C2D94DE8D2DBF
:10049000602F4C2D90DE0894611C711CA40CB51CBF
:1004A00082E090E0480E591EC501880F991F8C0FFD
:1004B0009D1F1816190634F4089481089108AC0E93
:1004C000BD1E2296861497040CF0B5CFDF91CF9114
:1004D0001F910F91FF90EF90DF90CF90BF90AF9062
:1004E0009F908F907F906F905F904F903F902F9054
:1004F0000895CF92DF92EF92FF920F931F93CF93C5
:10050000DF93C82ED62E7901C0E0D0E0042F10E092
:1005100006C08C2D6D2D4C2F970167DF2196C017DB
:10052000D107BCF3DF91CF911F910F91FF90EF9016
:10053000DF90CF900895BF92CF92DF92EF92FF921B
:100540000F931F93F82E062FB42ED22EEE24FA947A
:10055000CF2CC40EF3940BC01E2D100F8F2D612FC6
:1005600041E029DE8C2D612F41E025DEE394ED147E
:1005700098F3EE240150D00E0F5F0BC01E2D1F0DFF
:10058000812F602F41E017DE812F6D2D41E013DEBA
:10059000E394EB1498F31F910F91FF90EF90DF908D
:1005A000CF90BF9008950F931F93CF93DF938B014C
:1005B00090E080509E4F73E0880F991F7A95E1F785
:1005C000E3DDC0E0D0E0F801EC0FFD1F8081EFDD3E
:1005D0002196C830D105B9F7DF91CF911F910F91C6
:1005E00008958052E4DD0895CF93DF93EC0101C0BC
:1005F000F8DFFE01219684918823D1F7DF91CF9116
:100600000895CF93DF93EC0102C02196EADF888141
:100610008823D9F7DF91CF910895CF93DF9380EEB0
:1006200091E0B2DDC0E0D0E080E0C1DD21968FE056
:10063000C030D807C9F7DF91CF910895CF93DF93EA
:1006400080E090E1A1DDC0E0D0E080E0B0DD219667
:1006500088E0C030D807C9F7DF91CF910895CF93D4
:10066000DF9380E090E090DDC0E0D0E080E09FDDAF
:10067000219681E0C03ED807C9F7DF91CF91089558
:1006800086958695869590E080529E4F2EE1629FDA
:10069000B0011124860F971F77DD0895AF92BF92A6
:1006A000CF92DF92EF92FF920F931F93CF93DF933E
:1006B000A62EB42ED22EC02ED694D694D6947C01DB
:1006C00000E013C0602F6B0D8A2DDADFE70110E028
:1006D00005C0FE0184916BDD1F5F21961D15C8F3D7
:1006E0000F5F8EE190E0E80EF91E0C1558F3DF91D4
:1006F000CF911F910F91FF90EF90DF90CF90BF901F
:10070000AF9008958FEF84BB8FE38ABB8BB38F6369
:100710008BBBDC9880ED97E00197F1F7DC9ADD98D0
:1007200080EEF0DC81E0EEDC82E4CBDC8EE1EADC22
:1007300080E0E8DC83E4C5DC80E0E4DC80E0E2DC4F
:1007400080E4BFDC8EE1DEDC80E0DCDC81E4B9DC6F
:1007500082E0D8DC80E0D6DC82E2B3DC8CE9B1DC7C
:1007600080E8AFDC089511BA17BACCDF78DF66DF16
:1007700054DF83E090E090931B0180931A01089569
:10078000982F843108F465C18C3D08F062C186372A
:1007900009F45FC18F3211F08F3B29F46D3518F4E5
:1007A000613208F056C19B3111F0933D29F4613557
:1007B00018F46D3218F04DC16C3511F0613229F426
:1007C000892F8F52813908F044C16B3239F4923746
:1007D00008F490C09B3708F08DC03BC16C3279F4AF
:1007E000892F8F56833008F434C19B3709F431C107
:1007F0009C3709F42EC19D3709F07CC02AC16D32A7
:10080000A9F4892F8451873008F423C19D3609F457
:1008100020C19E3609F41DC19E3709F41AC19F37C5
:1008200009F417C1943D08F465C013C16E3261F438
:10083000892F8B56823008F40CC1903809F409C115
:10084000913809F057C005C16F3239F49A3609F46E
:1008500000C1923809F04EC0FCC0603339F49936BB
:1008600009F4F7C0933809F045C0F3C0613331F49F
:10087000983609F4EEC09438E9F5EBC0623331F4F0
:10088000973609F4E6C09538A9F5E3C0633331F42F
:10089000963609F4DEC0963869F5DBC0643311F092
:1008A000653331F4953609F4D4C0973819F5D1C0C1
:1008B000663311F0673331F4943609F4CAC09838BE
:1008C000C9F4C7C0683321F0693311F06A3331F4D9
:1008D000933609F4BEC0993869F4BBC06B3321F07C
:1008E0006C3311F06D3331F4923609F4B2C09A389A
:1008F00009F4AFC0862F8E538330B8F4892F855208
:10090000823008F4A6C0923609F4A3C0953709F4E2
:10091000A0C0973709F49DC09A3809F49AC0983C52
:1009200009F497C0993C09F494C06F3439F49A36AD
:1009300009F48FC0923809F08EC08BC06E3439F440
:10094000993609F486C0933809F085C082C06D34A9
:1009500039F4983609F47DC0943809F07CC079C028
:100960006C3439F4973609F474C0953809F073C0C3
:1009700070C06B3439F4963609F46BC0963809F0C0
:100980006AC067C06A3411F0693439F4953609F4E5
:1009900060C0973809F05FC05CC0683411F06734FC
:1009A00039F4943609F455C0983809F054C051C050
:1009B000663421F0653411F0643439F4933609F467
:1009C00048C0993809F047C044C0633411F062341C
:1009D00029F49236F1F19A38F1F53BC0613431F4E3
:1009E0009236B9F180E09A38B9F533C0603581F4B8
:1009F000892F8451873068F19B3659F19C3649F133
:100A0000903839F1913829F180E0943D28F121C0E6
:100A1000613551F4892F8D568230D8F09E37C9F058
:100A200080E09F37C9F415C0623561F4892F8F5675
:100A3000833078F09B3769F09C3759F080E09D3720
:100A400059F407C0633539F4923728F080E09B37BA
:100A500018F481E0089580E008952F923F924F921C
:100A60005F926F927F928F929F92AF92BF92CF923E
:100A7000DF92EF92FF920F931F93DF93CF93CDB747
:100A8000DEB729970FB6F894DEBF0FBECDBF8983BE
:100A90006A834B832C8380901A0190901B01C401C0
:100AA000880F991F22273327281B390B2F5F3F4FB1
:100AB00039872887AA24BB24F1E06F2E712CCC241F
:100AC000DD24D5C0FF243A813A0D3D839A819A19DD
:100AD0009E83E981EA0DEF8329802A183C803A0C35
:100AE0004C804A185B805A0CEB80EA1809810F0D84
:100AF000802F6D8145DE882321F4802F6D8140E0B9
:100B00005ADB19811F19812F6D813ADE882321F468
:100B1000812F6D8140E04FDB812F6E8131DE882394
:100B200021F4812F6E8140E046DB802F6E8128DE2C
:100B3000882321F4802F6E8140E03DDB1A811F0D58
:100B40008F81612F1DDE882321F48F81612F40E08A
:100B500032DB822D612F14DE882321F4822D612F58
:100B600040E029DB1A811F19822D612F09DE8823BD
:100B700021F4822D612F40E01EDB8F81612F00DE8A
:100B8000882321F48F81612F40E015DB0B810F0D4D
:100B9000802F632DF5DD882321F4802F632D41E024
:100BA0000ADB1B811F19812F632DEADD882321F4C5
:100BB000812F632D41E0FFDA812F642DE1DD882351
:100BC00021F4812F642D41E0F6DA802F642DD8DDE9
:100BD000882321F4802F642D41E0EDDA1C811F0D64
:100BE000852D612FCDDD882321F4852D612F41E0F6
:100BF000E2DA8E2D612FC4DD882321F48E2D612F42
:100C000041E0D9DA1C811F198E2D612FB9DD8823AF
:100C100021F48E2D612F41E0CEDA852D612FB0DDDC
:100C2000882321F4852D612F41E0C5DAF394F2E0A9
:100C3000FF1609F05BCFC60CD71CC601880F991FA1
:100C400028853985820F931F181619064CF40894CD
:100C500081089108C20ED31E2E5F3F4F3987288727
:100C60000894A11CB11C82E090E0680E791E8A14E1
:100C70009B040CF027CF8091FC009091FD00909395
:100C80001F0180931E0180910201909103019093B6
:100C900021018093200129960FB6F894DEBF0FBE84
:100CA000CDBFCF91DF911F910F91FF90EF90DF901B
:100CB000CF90BF90AF909F908F907F906F905F90FC
:100CC0004F903F902F90089520E030E0FC01E20F1C
:100CD000F31F10822F5F3F4F2E313105B9F720E00F
:100CE00030E006C0FC01E20FF31F40832F5F3F4F4F
:100CF000FB01E20FF31F40814423A1F708950F93F6
:100D00001F93DF93CF93CDB7DEB76E970FB6F894EE
:100D1000DEBF0FBECDBFDE011196EFEAF0E088E046
:100D200001900D928150E1F7FE01399686E1DF01D5
:100D30001D928A95E9F78BE062E02FDA8E010F5F52
:100D40001F4FC8015EDCC80160E670E0BDDF8CE0CB
:100D500064E023DAC80155DCC80166E670E0B4DF60
:100D60008BE066E01ADAC8014CDCC8016FE670E07F
:100D7000ABDF8BE06AE011DAC80143DCC80168E749
:100D800070E0A2DF85E06BE008DAC8013ADCC80158
:100D90006EE870E099DF89E06CE0FFD9C80131DCD2
:100DA000C8016BE970E090DF86E06DE0F6D9C8011C
:100DB00028DC33DC32DC31DC52DC6E960FB6F89482
:100DC000DEBF0FBECDBFCF91DF911F910F91089570
:100DD0000F931F9381E160E042E020E801E010E022
:100DE00021DA82E161E24EE12CE3A5DB82E16DE2F2
:100DF0004AE024E2A0DB85E26EE342E022E012DA80
:100E000081E16FE241E020E200E010E00BDA8FE0E8
:100E10006FE244E020E28FDB85E76EE343E023E00E
:100E200001E010E0FFD986E76FE344E121E030E024
:100E3000DCDA86E760E041E020E8F4D98CED60E0A0
:100E400042E020E8EFD98FEB61E24EE12CE373DB67
:100E500083ED6DE24AE024E26EDB88EC6EE342E073
:100E600022E0E0D98DED6FE241E020E200E010E009
:100E7000D9D98CED6FE244E020E25DDB19E088E037
:100E8000612F45E021E030E0B0DA86EE612F45E0E9
:100E900021E030E0AADA145F113889F71F910F9131
:100EA00008950F931F93CF93DF93E0E0F0E020E8E5
:100EB00030E001E010E0C0E0D0E080B390E08223B9
:100EC0009323892B11F0E00FF11F2196C830D10533
:100ED00041F0C90162E070E05FD29B01000F111F79
:100EE000ECCFCF01DF91CF911F910F910895EF9239
:100EF000FF920F931F93CF93DF93109209011092EB
:100F00000801C1E0D0E023C0CCDF9C01B09B1BC036
:100F100080910A0190910B010197C9F0D0930B01C8
:100F2000C0930A018091080190910901FC01EE0F24
:100F3000FF1FE05FFE4F31832083019690930901EC
:100F40008093080104C010920B0110920A01809155
:100F50000801909109010597BCF2E0E1F1E020E081
:100F600030E0808191818F3F910571F5C901019633
:100F700065E070E011D27C01C901029665E070E085
:100F80000BD28C01C901039665E070E005D2FC012B
:100F9000C901049665E070E0FFD19C0140E050E09B
:100FA000220F331F205F3E4FEF01CC0FDD1FC05FCC
:100FB000DE4FB801660F771F605F7E4FD701AA0F23
:100FC000BB1FA05FBE4F2EC02F5F3F4F3296253014
:100FD000310539F6CBCF4130510541F48D919C91CB
:100FE00011979093FD008093FC001CC04230510586
:100FF00041F4FB0180819181909303018093020170
:1010000011C04330510539F4888199819093F500DE
:101010008093F40007C0F901808191819093F700DB
:101020008093F6004F5F5F4F45305105A1F6DF9189
:10103000CF911F910F91FF90EF9008950F931F9301
:1010400080911E016091200140910E0120911C01B0
:1010500004DD80910E0190910F0180931E01909309
:101060001F0160911C0190911D01609320019093DC
:10107000210126E930E030930F0120930E0108E7AB
:1010800010E010931D0100931C0146E928E7E5DC00
:1010900080910E0190910F0180931E0190931F018A
:1010A00060911C0190911D0160932001909321019A
:1010B0002CE330E030930F0120930E012EE130E05D
:1010C00030931D0120931C014CE32EE1C6DC80917E
:1010D0000E0190910F0180931E0190931F0160916A
:1010E0001C0190911D01609320019093210120E546
:1010F00030E030930F0120930E0130931D012093B7
:101100001C0140E520E5A9DC80910E0190910F01C2
:1011100080931E0190931F0160911C0190911D010D
:10112000609320019093210110930F0100930E0111
:1011300022E330E030931D0120931C0148E722E3B5
:101140008CDC80910E0190910F0190931F01809390
:101150001E0180911C0190911D01909321018093AB
:10116000200188EC90E090930F0180930E0184E1C0
:1011700090E090931D0180931C011F910F910895A1
:10118000AF92BF92CF92DF92EF92FF920F931F9395
:10119000DF93CF93CDB7DEB764970FB6F894DEBF79
:1011A0000FBECDBF8E010F5F1F4FC8016DEC70E009
:1011B0008BDD8BE06FE0F1D7C80123DA88E16FE0C7
:1011C000ECD7C8011EDAC80161ED70E07DDD84E076
:1011D00060E0E3D7C80115DAC8016AED70E074DD9C
:1011E00081E160E0DAD7C8010CDA73EEA72E70E077
:1011F000B72EC801B50168DD84E06FE0CED7C80125
:1012000000DA00D000D000D0EDB7FEB73196ADB710
:10121000BEB712961C930E9311976BEEC62E60E02C
:10122000D62ED382C2825FE7E52EF12C8091F400A6
:101230009091F5009701281B390B35832483D3D077
:101240008DB79EB706960FB6F8949EBF0FBE8DBFA2
:101250008BE06FE0A2D7C801D4D9C801B50134DD55
:1012600081E16FE09AD7C801CCD900D000D000D07E
:10127000EDB7FEB73196ADB7BEB712961C930E937D
:101280001197D382C2828091F6009091F700E81AFC
:10129000F90AF582E482A7D02DB73EB72A5F3F4F07
:1012A0000FB6F8943EBF0FBE2DBF88E16FE075D733
:1012B000C801A7D964960FB6F894DEBF0FBECDBFA4
:1012C000CF91DF911F910F91FF90EF90DF90CF9022
:1012D000BF90AF900895EF92FF920F931F93DF930B
:1012E000CF93CDB7DEB72A970FB6F894DEBF0FBE07
:1012F000CDBF39DA04DD6CDD10921F0110921E01A2
:1013000010922101109220017E010894E11CF11C31
:10131000EEDD80911E01609120014091FC00209142
:1013200002019BDB80911E0190911F01813191058B
:1013300019F08E3D910571F5809120019091210168
:10134000C2974A9738F5C7016EEE70E0BDDC86E0C3
:1013500062E023D7C70155D983E162E01ED7C701F8
:1013600050D9D69A81E160E041E020E801E010E048
:1013700059D781E160E041E020E854D7D69881E177
:1013800060E041E020E84ED781E160E041E020E804
:1013900049D765D9F5DEBCCF97FB092E07260AD0C1
:1013A00077FD04D00CD006D000201AF4709561951A
:1013B0007F4F0895F6F7909581959F4F0895AA1B4A
:1013C000BB1B51E107C0AA1FBB1FA617B70710F030
:1013D000A61BB70B881F991F5A95A9F78095909562
:1013E000BC01CD010895AEE0B0E0E8EFF9E098C2AD
:1013F0000D891E8986E08C831A8309838FEF9FE70E
:101400009E838D839E01275E3F4FCE0101966F899B
:10141000788DA90109D02F813885020F131FF8019B
:1014200010822E96E4E098C2ABE0B0E0E9E1FAE089
:1014300069C23C012B015A01FC011782168283818B
:1014400081FD03C06FEF7FEFB9C19AE0892E1E01C5
:101450000894211C311CF3012381F20123FD8591A5
:1014600023FF81912F01882309F4A5C1853239F426
:1014700023FD859123FF81912F01853221F490E096
:10148000B301B6D1E8CF982FFF24EE249924FFE1D1
:10149000FF15D0F09B3269F09C3228F4903259F05D
:1014A000933291F40EC09D3249F0903369F441E0DB
:1014B00024C052E0F52A84E0F82A28C098E0F92AEE
:1014C00025C0E0E1FE2A22C0F7FC29C0892F805305
:1014D0008A3070F4F6FE05C0989C902C1124980E6A
:1014E00015C0E89CE02C1124E80EF0E2FF2A0EC0A3
:1014F0009E3229F4F6FC5FC140E4F42A07C09C3612
:1015000019F450E8F52A02C0983649F4F20123FD97
:10151000959123FF91912F01992309F0B8CF892F3D
:101520008554833018F08052833038F444E050E022
:10153000A40EB51E5FE359830FC0933631F0933785
:1015400079F0933509F052C01FC0F501808189837D
:1015500042E050E0A40EB51E610101E010E011C0B0
:10156000F501C080D180F6FC03C06FEF7FEF02C0B1
:10157000692D70E042E050E0A40EB51EC6012DD1E9
:101580008C015FE7F52213C0F501C080D180F6FC25
:1015900003C06FEF7FEF02C0692D70E042E050E0C2
:1015A000A40EB51EC6010ED18C0150E8F52AF3FE3B
:1015B00006C018C080E290E0B3011AD1EA948E2DE3
:1015C00090E008171907B0F30DC0F601F7FC8591FC
:1015D000F7FE81916F0190E0B3010AD1E110EA9426
:1015E000015010400115110581F7E2C0943611F049
:1015F000993661F5F7FE08C0F501208131814281FD
:10160000538184E090E00AC0F501808191819C01C2
:10161000442737FD4095542F82E090E0A80EB91E74
:101620009FE6F92257FF09C05095409530952195C6
:101630003F4F4F4F5F4FE0E8FE2ACA01B901A101B9
:101640002AE030E001D1D82ED2183FC0953729F4D6
:101650001F2D1F7E2AE030E01DC01F2D197F9F36F1
:1016600061F0903720F4983509F0A5C00FC090378D
:1016700039F0983709F09FC004C028E030E00AC074
:10168000106114FD146020E130E004C014FD166008
:1016900020E132E017FF08C0F5016081718182818D
:1016A000938144E050E008C0F50180819181BC0144
:1016B00080E090E042E050E0A40EB51EA101C4D04D
:1016C000D82ED2188FE7F82EF122F6FE0BC05EEF6F
:1016D000F522D91438F4F4FE07C0F2FC05C08FEEF1
:1016E000F82202C01D2D01C0192DF4FE0DC0FE010F
:1016F000ED0DF11D8081803319F499EEF92208C0B7
:101700001F5FF2FE05C003C08F2D867809F01F5FB2
:101710000F2DF3FC13C0F0FE0EC01E1510F09D2C13
:101720000AC09D2C9E0C911A1E2D05C080E290E0EF
:10173000B3015ED01F5F1E15C8F304C01E1510F460
:10174000E11A01C0EE2404FF0EC080E390E0B30173
:101750004FD002FF1BC001FD03C088E790E00EC020
:1017600088E590E00BC0802F867881F001FF02C0F1
:101770008BE201C080E2F7FC8DE290E0B30138D04B
:1017800005C080E390E0B30133D09A94D914C8F334
:10179000DA94F101ED0DF11D808190E0B30128D0C4
:1017A000DD20B1F705C080E290E0B30121D0EA94DA
:1017B000EE20C9F750CEF30166817781CB012B96DD
:1017C000E2E1BCC0FC010590615070400110D8F707
:1017D000809590958E0F9F1F0895FC016150704079
:1017E00001900110D8F7809590958E0F9F1F089556
:1017F0000F931F93CF93DF938C01EB018B8181FFBC
:101800001BC082FF0DC02E813F818C819D812817D6
:10181000390764F4E881F9810193F983E88306C00C
:10182000E885F985802F0995892B31F48E819F8178
:1018300001969F838E8302C00FEF1FEFC801DF91D7
:10184000CF911F910F910895FA01AA27283051F1E5
:10185000203181F1E8946F936E7F6E5F7F4F8F4FE1
:101860009F4FAF4FB1E03ED0B4E03CD0670F781F40
:10187000891F9A1FA11D680F791F8A1F911DA11D25
:101880006A0F711D811D911DA11D20D009F468945E
:101890003F912AE0269F11243019305D3193DEF606
:1018A000CF010895462F4770405D4193B3E00FD0BC
:1018B000C9F7F6CF462F4F70405D4A3318F0495DA7
:1018C00031FD4052419302D0A9F7EACFB4E0A6958A
:1018D0009795879577956795BA95C9F700976105AC
:1018E000710508959B01AC010A2E06945795479502
:1018F00037952795BA95C9F7620F731F841F951FF7
:10190000A01D08952F923F924F925F926F927F9207
:101910008F929F92AF92BF92CF92DF92EF92FF92FF
:101920000F931F93CF93DF93CDB7DEB7CA1BDB0BAB
:101930000FB6F894DEBF0FBECDBF09942A88398850
:1019400048885F846E847D848C849B84AA84B98457
:10195000C884DF80EE80FD800C811B81AA81B98163
:10196000CE0FD11D0FB6F894DEBF0FBECDBFED0177
:061970000895F894FFCF7A
:101976005461626C6500466F6F7362616C6C006DDA
:101986006164652062793A004368726973746961BB
:101996006E204D696B6B656C73747275700045696A
:1019A6006E6E657220426F726368004B7269737463
:1019B6006F66666572204C796E676269726B004469
:1019C60069676974616C0000000000000000000097
:1019D60000000000000000000000000000202020A1
:1019E60000506C61796572203100506C61796572C6
:1019F600203200506F7765723A2000256400474F09
:101A0600414C00016400640063003C006300000078
:061A1600B40063000000B3
:00000001FF
