:1000000012C02CC02BC02AC029C028C027C026C0BF
:1000100025C06DC223C022C021C020C01FC01EC089
:100020001DC01CC01BC011241FBECFE5D4E0DEBF25
:10003000CDBF10E0A0E6B0E0EEE7F6E002C005902C
:100040000D92A837B107D9F710E0A8E7B0E001C0DA
:100050001D92A239B107E1F7B4D20FC3D1CF83B358
:10006000409168005091690090E084239523892B8A
:1000700069F483B390E020916A0030916B00822391
:100080009323892B19F481E090E038C083B390E08A
:1000900084239523892B69F083B390E020916A0033
:1000A00030916B0082239323892B19F482E090E036
:1000B00025C083B390E084239523892B69F083B313
:1000C00090E020916A0030916B0082239323892B6A
:1000D00019F083E090E012C083B390E0842395236D
:1000E000892B81F483B390E020916A0030916B00FA
:1000F00082239323892B31F084E090E09093850054
:1001000080938400809182009091830081309105DA
:1001100039F48091840090918500049749F413C0CC
:10012000049731F480918400909185000197B9F093
:1001300020918A0030918B0080918C0090918D00ED
:10014000821793074CF48091600090916100823196
:1001500091058CF002970BC02817390764F4809141
:100160006000909161008E3D91052CF40296909371
:10017000610080936000809184009091850090934D
:10018000830080938200089583B340916C00509166
:100190006D0090E084239523892B69F483B390E06C
:1001A00020916E0030916F0082239323892B19F4E4
:1001B00081E090E038C083B390E084239523892BBD
:1001C00069F083B390E020916E0030916F0082233C
:1001D0009323892B19F482E090E025C083B390E04B
:1001E00084239523892B69F083B390E020916E00DE
:1001F00030916F0082239323892B19F083E090E0E4
:1002000012C083B390E084239523892B81F483B3B8
:1002100090E020916E0030916F0082239323892B10
:1002200031F084E090E090938900809388002091E1
:100230008600309187002130310539F480918800A3
:1002400090918900049751F410C02430310531F4A5
:100250008091880090918900019781F080918800B9
:10026000909189008217930734F4809164009091F3
:100270006500019708C0281739074CF48091640085
:100280009091650001969093650080936400809141
:10029000880090918900909387008093860008954C
:1002A00083B3409170005091710090E084239523B6
:1002B000892B69F483B390E0209172003091730030
:1002C00082239323892B19F481E090E038C083B313
:1002D00090E084239523892B69F083B390E02091EB
:1002E00072003091730082239323892B19F482E0EA
:1002F00090E025C083B390E084239523892B69F097
:1003000083B390E020917200309173008223932395
:10031000892B19F083E090E012C083B390E084232E
:100320009523892B81F483B390E020917200309162
:10033000730082239323892B31F084E090E0909323
:100340008D0080938C0020918A0030918B002130A9
:10035000310539F480918C0090918D00049751F40F
:1003600010C02430310531F480918C0090918D00C3
:10037000019799F080918C0090918D0082179307DE
:100380004CF48091620090916300181619068CF469
:1003900002970BC02817390764F48091620090918E
:1003A00063008F3791052CF402969093630080933D
:1003B000620080918C0090918D0090938B008093CF
:1003C0008A00089586B340916A0050916B0090E0D6
:1003D00084239523892B69F486B390E020916C00E7
:1003E00030916D0082239323892B19F481E090E0F2
:1003F00038C086B390E084239523892B69F086B3B7
:1004000090E020916C0030916D0082239323892B22
:1004100019F482E090E025C086B390E08423952310
:10042000892B69F086B390E020916C0030916D00CB
:1004300082239323892B19F083E090E012C086B3C6
:1004400090E084239523892B81F486B390E020915A
:100450006C0030916D0082239323892B31F084E06E
:1004600090E0909391008093900020918E003091C5
:100470008F002130310539F48091900090919100E6
:10048000049751F410C02430310531F4809190006C
:1004900090919100019781F080919000909191004E
:1004A0008217930734F4809166009091670001975A
:1004B00008C0281739074CF48091660090916700B6
:1004C00001969093670080936600809190009091D0
:1004D000910090938F0080938E00089583B782607F
:1004E00083BF12BE89B7816089BF789408951F9237
:1004F0000F920FB60F9211248F939F9312BE80918B
:100500007E0090917F00019690937F0080937E0003
:100510009F918F910F900FBE0F901F90189514BA56
:1005200089EF87BB8FEF81BBD9DF0895FC0180E0A5
:1005300090E0118210821382128215821482178237
:100540001682019638968230910599F70895209188
:100550007C0030917D002115310511F48FEF17C01B
:100560002130310519F48091600011C0223031052D
:1005700019F480917A000BC02330310519F4809171
:10058000620005C02430310519F48091780082BBE7
:10059000C901019690937D0080937C00059724F01B
:1005A00010927D0010927C00089510927F001092AE
:1005B0007E0098B3809168008095892388BBC7DF4F
:1005C0000895CF93DF93ABDF82E890E0AFDFCFE712
:1005D000D0E045DDD9DD64DEF5DE80917E009091CE
:1005E0007F008230910531F488B390916800892BA7
:1005F00088BB0CC0049754F0D8DF809180009091A4
:10060000810001969093810080938000809180000A
:10061000909181004E97ECF220916400309165003A
:10062000309379002093780037FF08C088279927F6
:10063000821B930B90937900809378002091660041
:100640003091670030937B0020937A0037FF08C019
:1006500088279927821B930B90937B0080937A00C5
:10066000D0936500C0936400D0936700C093660088
:0E0670001092810010928000ACCFF894FFCF62
:10067E0076003F007F007F000100020004000800AA
:08068E00100020004000800074
:00000001FF
