:1000000012C02CC02BC02AC029C028C027C026C0BF
:1000100025C052C223C022C021C020C01FC01EC0A4
:100020001DC01CC01BC011241FBECFE5D4E0DEBF25
:10003000CDBF10E0A0E6B0E0E0E2F7E002C005903E
:100040000D92A837B107D9F710E0A8E7B0E001C0DA
:100050001D92A239B107E1F715D360C3D1CF83B3A5
:10006000409168005091690090E084239523892B8A
:1000700069F483B390E020916A0030916B00822391
:100080009323892B19F481E090E038C083B390E08A
:1000900084239523892B69F083B390E020916A0033
:1000A00030916B0082239323892B19F482E090E036
:1000B00025C083B390E084239523892B69F083B313
:1000C00090E020916A0030916B0082239323892B6A
:1000D00019F083E090E012C083B390E0842395236D
:1000E000892B81F483B390E020916A0030916B00FA
:1000F00082239323892B31F084E090E09093850054
:1001000080938400809182009091830081309105DA
:1001100079F480918400909185000497E9F48091AE
:1001200060009091610018161906B4F4019710C090
:10013000049791F48091840090918500019761F477
:1001400080916000909161008F3F91052CF40196A1
:10015000909361008093600080918400909185006D
:100160009093830080938200089583B340916C0044
:1001700050916D0090E084239523892B69F483B31B
:1001800090E020916E0030916F0082239323892BA1
:1001900019F481E090E038C083B390E08423952384
:1001A000892B69F083B390E020916E0030916F004D
:1001B00082239323892B19F482E090E025C083B336
:1001C00090E084239523892B69F083B390E02091FC
:1001D0006E0030916F0082239323892B19F083E006
:1001E00090E012C083B390E084239523892B81F49F
:1001F00083B390E020916E0030916F0082239323AF
:10020000892B31F084E090E09093890080938800FE
:1002100020918600309187002130310539F480919A
:10022000880090918900049751F410C02430310562
:1002300031F48091880090918900019781F080913C
:100240008800909189008217930734F480916400AC
:1002500090916500019708C0281739074CF48091E8
:10026000640090916500019690936500809364000E
:1002700080918800909189009093870080938600F8
:10028000089583B3409170005091710090E08423F1
:100290009523892B69F483B390E02091720030910B
:1002A000730082239323892B19F481E090E038C0F6
:1002B00083B390E084239523892B69F083B390E086
:1002C000209172003091730082239323892B19F4BB
:1002D00082E090E025C083B390E084239523892BAE
:1002E00069F083B390E02091720030917300822313
:1002F0009323892B19F083E090E012C083B390E040
:1003000084239523892B81F483B390E0209172009C
:100310003091730082239323892B31F084E090E0A5
:1003200090938D0080938C0080918A0090918B0037
:100330008130910579F480918C0090918D00049723
:10034000E9F4809162009091630018161906B4F4E4
:10035000019710C0049791F480918C0090918D00CA
:10036000019761F480916200909163008F3F910545
:100370002CF40196909363008093620080918C002E
:1003800090918D0090938B0080938A00089586B39E
:1003900040916A0050916B0090E084239523892B53
:1003A00069F486B390E020916C0030916D00822357
:1003B0009323892B19F481E090E038C086B390E054
:1003C00084239523892B69F086B390E020916C00FB
:1003D00030916D0082239323892B19F482E090E001
:1003E00025C086B390E084239523892B69F086B3DA
:1003F00090E020916C0030916D0082239323892B33
:1004000019F083E090E012C086B390E08423952336
:10041000892B81F486B390E020916C0030916D00BF
:1004200082239323892B31F084E090E09093910014
:100430008093900020918E0030918F002130310503
:1004400039F48091900090919100049751F410C07C
:100450002430310531F48091900090919100019702
:1004600081F080919000909191008217930734F46D
:100470008091660090916700019708C0281739079E
:100480004CF480916600909167000196909367000C
:1004900080936600809190009091910090938F00DE
:1004A00080938E00089583B7846083BF12BE89B79E
:1004B000816089BF789408951F920F920FB60F92B2
:1004C00011248F939F9312BE80917E0090917F00A4
:1004D000019690937F0080937E00809180009091A0
:1004E0008100019690938100809380009F918F916D
:1004F0000F900FBE0F901F901895209164003091BF
:100500006500309379002093780037FF08C0882772
:100510009927821B930B9093790080937800209108
:1005200066003091670030937B0020937A0037FF9C
:1005300008C088279927821B930B90937B00809398
:100540007A008FE790E09093650080936400909329
:1005500067008093660010927F0010927E000895DD
:1005600014BA89EF87BB8FEF81BB9DDF0895FC0133
:1005700080E090E011821082138212821582148230
:1005800017821682019638968230910599F7089560
:10059000089540917C0050917D0045305105D4F480
:1005A00088B390916800892B88BB12BA28B38091D8
:1005B00074008095822388BB28B380917600809553
:1005C000822388BB8091600082BB88B3909598237A
:1005D00098BB4BC0CA0105970597A0F488B320913A
:1005E0006800822B88BB12BA88B390917400892B63
:1005F00088BB98B3809176008095892388BB8091D1
:1006000078002EC0CA010A97059798F488B3209104
:100610006800822B88BB12BA88B390917400892B32
:1006200088BB88B390917600892B88BB809162004B
:1006300017C0CA010F970597C0F488B320916800CE
:10064000822B88BB12BA98B380917400809589235D
:1006500088BB88B390917600892B88BB80917A0003
:1006600082BB88B32095282328BBCA0101969093AA
:100670007D0080937C00449724F010927D001092BE
:100680007C000895CF93DF936BDF82E890E06FDF0B
:100690008AE090E09093610080936000C0E0D0E039
:1006A000DEDC63DDEEDD73DE80917E0090917F0005
:1006B000181619060CF421DFC330D10509F469DFDF
:1006C000CE01019664E070E002D0EC01E9CF97FB27
:1006D000092E07260AD077FD04D00CD006D00020C2
:1006E0001AF4709561957F4F0895F6F7909581956E
:1006F0009F4F0895AA1BBB1B51E107C0AA1FBB1F38
:10070000A617B70710F0A61BB70B881F991F5A959D
:10071000A9F780959095BC01CD010895F894FFCF7D
:10072000AA0064007F007F000100020004000800AE
:080730001000200040008000D1
:00000001FF
