:1000000012C02CC02BC02AC029C028C027C026C0BF
:1000100025C0C6C123C022C021C020C01FC01EC031
:100020001DC01CC01BC011241FBECFE5D4E0DEBF25
:10003000CDBF10E0A0E6B0E0E8E8F4E002C0059033
:100040000D92A437B107D9F710E0A4E7B0E001C0E2
:100050001D92A438B107E1F7DDD114C2D1CFBC01A4
:1000600083B3DB01AA0FBB1FFD01EE0FFF1FEC598D
:10007000FF4F4081518190E084239523892B81F4A7
:1000800083B3FD01EE0FFF1FEA59FF4F90E020817F
:10009000318182239323892B19F481E090E040C0C1
:1000A00083B390E084239523892B81F083B3FD01F2
:1000B000EE0FFF1FEA59FF4F90E02081318182232C
:1000C0009323892B19F482E090E02AC083B390E057
:1000D00084239523892B81F083B3FD01EE0FFF1F4D
:1000E000EA59FF4F90E02081318182239323892BAD
:1000F00019F083E090E014C083B390E048235923C3
:10010000452B91F483B3AA0FBB1FAA59BF4F90E0B0
:100110002D913C9182239323892B31F084E090E050
:1001200090937B0080937A0020917C0030917D0039
:10013000672B69F12130310539F480917A00909173
:100140007B00049751F410C02430310531F48091C4
:100150007A0090917B00019781F080917A009091D4
:100160007B008217930734F480917400909175009E
:10017000019708C0281739078CF580917400909179
:1001800075000196909375008093740027C021300C
:10019000310579F480917A0090917B000497F1F415
:1001A000809160009091610018161906BCF40197C7
:1001B00011C02430310591F480917A0090917B0038
:1001C000019761F480916000909161008F3F9105EB
:1001D0002CF40196909361008093600080917A00E6
:1001E00090917B0090937D0080937C000895BC01EA
:1001F00083B3FB01EE0FFF1FEE0FFF1FE459FF4F0C
:100200004081518190E084239523892B91F483B31D
:10021000FB01EE0FFF1FEE0FFF1FE259FF4F90E0B3
:100220002081318182239323892B19F481E090E08E
:1002300047C083B390E084239523892B91F083B347
:10024000FB01EE0FFF1FEE0FFF1FE259FF4F90E083
:100250002081318182239323892B19F482E090E05D
:100260002FC083B390E084239523892B91F083B32F
:10027000FB01EE0FFF1FEE0FFF1FE259FF4F90E053
:100280002081318182239323892B19F083E090E030
:1002900017C083B390E048235923452BA9F483B3B7
:1002A000FB01EE0FFF1FEE0FFF1FE259FF4F90E023
:1002B0002081318182239323892B31F084E090E0E7
:1002C00090937F0080937E00209182003091830084
:1002D000672B69F12130310539F480917E009091CE
:1002E0007F00049751F410C02430310531F480911F
:1002F0007E0090917F00019781F080917E00909127
:100300007F008217930734F48091760090917700F4
:10031000019708C0281739078CF5809176009091D5
:1003200077000196909377008093760027C0213064
:10033000310579F480917E0090917F000497F1F46B
:10034000809162009091630018161906BCF4019721
:1003500011C02430310591F480917E0090917F008E
:10036000019761F480916200909163008F3F910545
:100370002CF40196909363008093620080917E003C
:1003800090917F009093830080938200089583B7BB
:10039000856083BF12BE89B7816089BF7894089554
:1003A0001F920F920FB60F9211248F939F9312BE3C
:1003B00080917800909179000196909379008093D4
:1003C00078009F918F910F900FBE0F901F901895FE
:1003D000209174003091750030938100209380004B
:1003E00037FF08C088279927821B930B90938100C1
:1003F0008093800010927500109274001092790022
:1004000010927800089514BA89E387BB8FEF81BBFF
:10041000BEDF0895F8DF8AE090E09093610080935A
:10042000600080E090E01BDE81E090E018DE80E07C
:1004300090E0DDDE81E090E0DADE8091780090915E
:10044000790018161906D4F42091740030917500C3
:10045000309381002093800037FF08C088279927B8
:10046000821B930B90938100809380001092750003
:1004700010927400109279001092780080918000A0
:0804800082BBCFCFF894FFCF3F
:10048800640064000100020004000800100020005D
:0404980040008000A0
:00000001FF
