:1000000012C02CC02BC02AC029C028C027C026C0BF
:1000100025C052C223C022C021C020C01FC01EC0A4
:100020001DC01CC01BC011241FBECFE5D4E0DEBF25
:10003000CDBF10E0A0E6B0E0E8E6F6E002C0059033
:100040000D92A837B107D9F710E0A8E7B0E001C0DA
:100050001D92A039B107E1F7EED204C3D1CF83B32B
:10006000409168005091690090E084239523892B8A
:1000700069F483B390E020916A0030916B00822391
:100080009323892B19F481E090E038C083B390E08A
:1000900084239523892B69F083B390E020916A0033
:1000A00030916B0082239323892B19F482E090E036
:1000B00025C083B390E084239523892B69F083B313
:1000C00090E020916A0030916B0082239323892B6A
:1000D00019F083E090E012C083B390E0842395236D
:1000E000892B81F483B390E020916A0030916B00FA
:1000F00082239323892B31F084E090E09093830056
:1001000080938200809180009091810081309105E0
:1001100079F480918200909183000497E9F48091B2
:1001200060009091610018161906B4F4019710C090
:10013000049791F48091820090918300019761F47B
:1001400080916000909161008F3F91052CF40196A1
:100150009093610080936000809182009091830071
:100160009093810080938000089583B340916C0048
:1001700050916D0090E084239523892B69F483B31B
:1001800090E020916E0030916F0082239323892BA1
:1001900019F481E090E038C083B390E08423952384
:1001A000892B69F083B390E020916E0030916F004D
:1001B00082239323892B19F482E090E025C083B336
:1001C00090E084239523892B69F083B390E02091FC
:1001D0006E0030916F0082239323892B19F083E006
:1001E00090E012C083B390E084239523892B81F49F
:1001F00083B390E020916E0030916F0082239323AF
:10020000892B31F084E090E0909387008093860002
:1002100020918400309185002130310539F480919E
:10022000860090918700049751F410C02430310566
:1002300031F48091860090918700019781F0809140
:100240008600909187008217930734F480916400B0
:1002500090916500019708C0281739074CF48091E8
:10026000640090916500019690936500809364000E
:100270008091860090918700909385008093840000
:10028000089583B3409170005091710090E08423F1
:100290009523892B69F483B390E02091720030910B
:1002A000730082239323892B19F481E090E038C0F6
:1002B00083B390E084239523892B69F083B390E086
:1002C000209172003091730082239323892B19F4BB
:1002D00082E090E025C083B390E084239523892BAE
:1002E00069F083B390E02091720030917300822313
:1002F0009323892B19F083E090E012C083B390E040
:1003000084239523892B81F483B390E0209172009C
:100310003091730082239323892B31F084E090E0A5
:1003200090938B0080938A0080918800909189003F
:100330008130910579F480918A0090918B00049727
:10034000E9F4809162009091630018161906B4F4E4
:10035000019710C0049791F480918A0090918B00CE
:10036000019761F480916200909163008F3F910545
:100370002CF40196909363008093620080918A0030
:1003800090918B009093890080938800089586B3A4
:1003900040916A0050916B0090E084239523892B53
:1003A00069F486B390E020916C0030916D00822357
:1003B0009323892B19F481E090E038C086B390E054
:1003C00084239523892B69F086B390E020916C00FB
:1003D00030916D0082239323892B19F482E090E001
:1003E00025C086B390E084239523892B69F086B3DA
:1003F00090E020916C0030916D0082239323892B33
:1004000019F083E090E012C086B390E08423952336
:10041000892B81F486B390E020916C0030916D00BF
:1004200082239323892B31F084E090E090938F0016
:1004300080938E0020918C0030918D002130310509
:1004400039F480918E0090918F00049751F410C080
:100450002430310531F480918E0090918F00019706
:1004600081F080918E0090918F008217930734F471
:100470008091660090916700019708C0281739079E
:100480004CF480916600909167000196909367000C
:100490008093660080918E0090918F0090938D00E4
:1004A00080938C00089583B7846083BF12BE89B7A0
:1004B000816089BF789408951F920F920FB60F92B2
:1004C00011248F939F9312BE80917E0090917F00A4
:1004D000019690937F0080937E009F918F910F9063
:1004E0000FBE0F901F901895209164003091650009
:1004F000309379002093780037FF08C08827992728
:10050000821B930B90937900809378002091660072
:100510003091670030937B0020937A0037FF08C04A
:1005200088279927821B930B90937B0080937A00F6
:100530008FE790E09093650080936400909367004C
:100540008093660010927F0010927E00089514BA86
:100550008FE387BB8FEF81BBA6DF0895FC0180E0AE
:1005600090E0118210821382128215821482178207
:100570001682019638968230910599F70895209158
:100580007C0030917D002530310584F412BA98B397
:10059000809174008095892388BB98B38091760000
:1005A0008095892388BB8091600037C0C901059779
:1005B000059778F412BA88B390917400892B88BBA0
:1005C00098B3809176008095892388BB80917800CC
:1005D00024C0C9010A97059770F412BA88B39091A4
:1005E0007400892B88BB88B390917600892B88BBD7
:1005F0008091620012C0C9010F97059778F412BA72
:1006000098B3809174008095892388BB88B39091BA
:100610007600892B88BB80917A0082BBC901019644
:1006200090937D0080937C00449724F010927D008D
:1006300010927C0008958BDF80E890E08FDF8AE0E5
:1006400090E0909361008093600009DD8EDD19DEFB
:100650009EDE80917E0090917F0002970CF044DF37
:080660008EDFF3CFF894FFCF09
:10066800640064007F007F000100020004000800AD
:0806780010002000400080008A
:00000001FF
